{
  "contractName": "CampaignDonors",
  "abi": [
    {
      "inputs": [
        {
          "internalType": "uint256",
          "name": "",
          "type": "uint256"
        },
        {
          "internalType": "uint256",
          "name": "",
          "type": "uint256"
        }
      ],
      "name": "campaignDonor",
      "outputs": [
        {
          "internalType": "address",
          "name": "donor",
          "type": "address"
        },
        {
          "internalType": "uint256",
          "name": "amount",
          "type": "uint256"
        }
      ],
      "stateMutability": "view",
      "type": "function"
    },
    {
      "inputs": [
        {
          "internalType": "uint256",
          "name": "_id",
          "type": "uint256"
        },
        {
          "internalType": "uint256",
          "name": "_value",
          "type": "uint256"
        },
        {
          "internalType": "address",
          "name": "_donor",
          "type": "address"
        }
      ],
      "name": "addDonorToCampaign",
      "outputs": [],
      "stateMutability": "nonpayable",
      "type": "function"
    },
    {
      "inputs": [
        {
          "internalType": "uint256",
          "name": "_id",
          "type": "uint256"
        }
      ],
      "name": "getCampaignDonors",
      "outputs": [
        {
          "components": [
            {
              "internalType": "address",
              "name": "donor",
              "type": "address"
            },
            {
              "internalType": "uint256",
              "name": "amount",
              "type": "uint256"
            }
          ],
          "internalType": "struct CampaignDonors.CampaignDonor[]",
          "name": "",
          "type": "tuple[]"
        }
      ],
      "stateMutability": "view",
      "type": "function"
    }
  ],
  "bytecode": "0x608060405234801561001057600080fd5b506105a7806100206000396000f3fe608060405234801561001057600080fd5b50600436106100415760003560e01c8063209b7d5f14610046578063245b515414610076578063323b5cea14610092575b600080fd5b610060600480360381019061005b91906102ee565b6100c3565b60405161006d9190610449565b60405180910390f35b610090600480360381019061008b9190610497565b610194565b005b6100ac60048036038101906100a791906104ea565b610252565b6040516100ba929190610548565b60405180910390f35b6060600080838152602001908152602001600020805480602002602001604051908101604052809291908181526020016000905b8282101561018957838290600052602060002090600202016040518060400160405290816000820160009054906101000a900473ffffffffffffffffffffffffffffffffffffffff1673ffffffffffffffffffffffffffffffffffffffff1673ffffffffffffffffffffffffffffffffffffffff168152602001600182015481525050815260200190600101906100f7565b505050509050919050565b60008084815260200190815260200160002060405180604001604052808373ffffffffffffffffffffffffffffffffffffffff16815260200184815250908060018154018082558091505060019003906000526020600020906002020160009091909190915060008201518160000160006101000a81548173ffffffffffffffffffffffffffffffffffffffff021916908373ffffffffffffffffffffffffffffffffffffffff160217905550602082015181600101555050505050565b6000602052816000526040600020818154811061026e57600080fd5b9060005260206000209060020201600091509150508060000160009054906101000a900473ffffffffffffffffffffffffffffffffffffffff16908060010154905082565b600080fd5b6000819050919050565b6102cb816102b8565b81146102d657600080fd5b50565b6000813590506102e8816102c2565b92915050565b600060208284031215610304576103036102b3565b5b6000610312848285016102d9565b91505092915050565b600081519050919050565b600082825260208201905092915050565b6000819050602082019050919050565b600073ffffffffffffffffffffffffffffffffffffffff82169050919050565b600061037282610347565b9050919050565b61038281610367565b82525050565b610391816102b8565b82525050565b6040820160008201516103ad6000850182610379565b5060208201516103c06020850182610388565b50505050565b60006103d28383610397565b60408301905092915050565b6000602082019050919050565b60006103f68261031b565b6104008185610326565b935061040b83610337565b8060005b8381101561043c57815161042388826103c6565b975061042e836103de565b92505060018101905061040f565b5085935050505092915050565b6000602082019050818103600083015261046381846103eb565b905092915050565b61047481610367565b811461047f57600080fd5b50565b6000813590506104918161046b565b92915050565b6000806000606084860312156104b0576104af6102b3565b5b60006104be868287016102d9565b93505060206104cf868287016102d9565b92505060406104e086828701610482565b9150509250925092565b60008060408385031215610501576105006102b3565b5b600061050f858286016102d9565b9250506020610520858286016102d9565b9150509250929050565b61053381610367565b82525050565b610542816102b8565b82525050565b600060408201905061055d600083018561052a565b61056a6020830184610539565b939250505056fea2646970667358221220c6e5fb1082887b0f472203b67be9c073c34a88dc9cda878ffc566a9044be40ac64736f6c63430008130033",
  "immutableReferences": {},
  "source": "// SPDX-License-Identifier: UNLICENSED\npragma solidity ^0.8.19;\n\ncontract DonorHistory{\n    struct History{\n        uint amount;\n        uint campaignId;\n    }\n    mapping(address=>History[]) public donorHistory;\n    function addToHistory(uint _amount,uint _campaignId, address _donor) public payable {\n        donorHistory[_donor].push(History({\n            amount:_amount,\n            campaignId:_campaignId\n        }));\n    }\n    function getDonorHistory(address _donor) public view returns(History[] memory){\n        return donorHistory[_donor];\n    }\n}\n\ncontract CampaignDonors {\n    struct CampaignDonor{\n        address donor;\n        uint amount;\n    }\n    mapping(uint=>CampaignDonor[]) public campaignDonor;\n    function addDonorToCampaign(uint _id, uint _value, address _donor) public {\n        campaignDonor[_id].push(CampaignDonor({\n            amount:_value,\n            donor:_donor\n        }));\n    } \n    function getCampaignDonors(uint _id) public view returns(CampaignDonor[] memory){\n        return campaignDonor[_id];\n    }\n} \n\ncontract CrowdFunding{\n    struct Campaign{\n        address payable receipientAddress;\n        string title;\n        string description;\n        string imageUrl;\n        uint target;\n        string deadline;\n        uint received;\n        uint id;\n        bool completed;\n    }\n    Campaign[] public campaigns;\n    DonorHistory public donorHistory;\n    CampaignDonors public campaignDonorsList;\n    constructor(){\n        donorHistory = new DonorHistory();\n        campaignDonorsList = new CampaignDonors();\n    }\n    uint public numberOfCampaigns = 0;\n    function addCampaigns(string memory _title, string memory _description, string memory _imageUrl, uint _target, string memory _deadline ) public {\n        require(_target > 0,\"Target amount must not be zero\");\n        campaigns.push(Campaign({\n            receipientAddress:payable(msg.sender),\n            title:_title,\n            description:_description,\n            imageUrl:_imageUrl,\n            target:_target,\n            deadline:_deadline,\n            received:0,\n            id:numberOfCampaigns,\n            completed:false\n        }));\n        numberOfCampaigns++;\n    }\n    function getDonorDonationHistory(address _address) public view returns (DonorHistory.History[] memory) {\n        return donorHistory.getDonorHistory(_address);\n    }\n    function getCampaignDonorsList(uint _id) public view returns(CampaignDonors.CampaignDonor[] memory) {\n        return campaignDonorsList.getCampaignDonors(_id);\n    }\n    function getCampaigns() public view returns(Campaign[] memory){\n        return campaigns;\n    } \n    function getCampaignDetails(uint index) public view returns(Campaign memory){\n        Campaign memory campaign = campaigns[index];\n        return campaign;\n    }\n\n    function donateToCampaign(uint index) public payable {\n        require(index < campaigns.length, \"Invalid campaign index\");\n        Campaign storage campaign = campaigns[index];\n        require(!campaign.completed,\"Campaign completed\");\n        campaign.receipientAddress.transfer(msg.value);\n        campaign.received = campaign.received + msg.value;\n        donorHistory.addToHistory(msg.value,index,msg.sender);\n        campaignDonorsList.addDonorToCampaign(index,msg.value,msg.sender);\n        if(campaign.received>=campaign.target){\n            campaign.completed = true;\n        }\n    } \n    function updateCampaign(uint index,string memory _title, string memory _description, string memory _imageUrl, uint _target, string memory _deadline) public {\n        require(index<campaigns.length,\"Invalid campaign index\");\n        Campaign storage campaign = campaigns[index];\n        campaign.title = _title;\n        campaign.description = _description;\n        campaign.imageUrl = _imageUrl;\n        campaign.deadline = _deadline;\n        campaign.target = _target;\n        if(campaign.received>=campaign.target){\n            campaign.completed = true;\n        }\n        else{\n            campaign.completed = false;\n        }\n    }\n}",
  "sourcePath": "/Users/uday/Desktop/Blockchain/project/contracts/CrowdFunding.sol",
  "compiler": {
    "name": "solc",
    "version": "0.8.19+commit.7dd6d404.Emscripten.clang"
  },
  "schemaVersion": "3.4.12",
  "updatedAt": "2023-04-22T06:31:20.570Z",
  "devdoc": {
    "kind": "dev",
    "methods": {},
    "version": 1
  },
  "userdoc": {
    "kind": "user",
    "methods": {},
    "version": 1
  }
}