{
  "contractName": "CrowdFunding",
  "abi": [
    {
      "inputs": [
        {
          "internalType": "uint256",
          "name": "",
          "type": "uint256"
        }
      ],
      "name": "campaigns",
      "outputs": [
        {
          "internalType": "address payable",
          "name": "receipientAddress",
          "type": "address"
        },
        {
          "internalType": "string",
          "name": "title",
          "type": "string"
        },
        {
          "internalType": "string",
          "name": "description",
          "type": "string"
        },
        {
          "internalType": "string",
          "name": "imageUrl",
          "type": "string"
        },
        {
          "internalType": "uint256",
          "name": "target",
          "type": "uint256"
        },
        {
          "internalType": "string",
          "name": "deadline",
          "type": "string"
        },
        {
          "internalType": "uint256",
          "name": "received",
          "type": "uint256"
        },
        {
          "internalType": "uint256",
          "name": "id",
          "type": "uint256"
        },
        {
          "internalType": "bool",
          "name": "completed",
          "type": "bool"
        }
      ],
      "stateMutability": "view",
      "type": "function",
      "constant": true
    },
    {
      "inputs": [],
      "name": "numberOfCampaigns",
      "outputs": [
        {
          "internalType": "uint256",
          "name": "",
          "type": "uint256"
        }
      ],
      "stateMutability": "view",
      "type": "function",
      "constant": true
    },
    {
      "inputs": [
        {
          "internalType": "string",
          "name": "_title",
          "type": "string"
        },
        {
          "internalType": "string",
          "name": "_description",
          "type": "string"
        },
        {
          "internalType": "string",
          "name": "_imageUrl",
          "type": "string"
        },
        {
          "internalType": "uint256",
          "name": "_target",
          "type": "uint256"
        },
        {
          "internalType": "string",
          "name": "_deadline",
          "type": "string"
        }
      ],
      "name": "addCampaigns",
      "outputs": [],
      "stateMutability": "nonpayable",
      "type": "function"
    },
    {
      "inputs": [],
      "name": "getCampaigns",
      "outputs": [
        {
          "components": [
            {
              "internalType": "address payable",
              "name": "receipientAddress",
              "type": "address"
            },
            {
              "internalType": "string",
              "name": "title",
              "type": "string"
            },
            {
              "internalType": "string",
              "name": "description",
              "type": "string"
            },
            {
              "internalType": "string",
              "name": "imageUrl",
              "type": "string"
            },
            {
              "internalType": "uint256",
              "name": "target",
              "type": "uint256"
            },
            {
              "internalType": "string",
              "name": "deadline",
              "type": "string"
            },
            {
              "internalType": "uint256",
              "name": "received",
              "type": "uint256"
            },
            {
              "internalType": "uint256",
              "name": "id",
              "type": "uint256"
            },
            {
              "internalType": "bool",
              "name": "completed",
              "type": "bool"
            }
          ],
          "internalType": "struct CrowdFunding.Campaign[]",
          "name": "",
          "type": "tuple[]"
        }
      ],
      "stateMutability": "view",
      "type": "function",
      "constant": true
    },
    {
      "inputs": [
        {
          "internalType": "uint256",
          "name": "index",
          "type": "uint256"
        }
      ],
      "name": "getCampaignDetails",
      "outputs": [
        {
          "components": [
            {
              "internalType": "address payable",
              "name": "receipientAddress",
              "type": "address"
            },
            {
              "internalType": "string",
              "name": "title",
              "type": "string"
            },
            {
              "internalType": "string",
              "name": "description",
              "type": "string"
            },
            {
              "internalType": "string",
              "name": "imageUrl",
              "type": "string"
            },
            {
              "internalType": "uint256",
              "name": "target",
              "type": "uint256"
            },
            {
              "internalType": "string",
              "name": "deadline",
              "type": "string"
            },
            {
              "internalType": "uint256",
              "name": "received",
              "type": "uint256"
            },
            {
              "internalType": "uint256",
              "name": "id",
              "type": "uint256"
            },
            {
              "internalType": "bool",
              "name": "completed",
              "type": "bool"
            }
          ],
          "internalType": "struct CrowdFunding.Campaign",
          "name": "",
          "type": "tuple"
        }
      ],
      "stateMutability": "view",
      "type": "function",
      "constant": true
    },
    {
      "inputs": [
        {
          "internalType": "uint256",
          "name": "index",
          "type": "uint256"
        }
      ],
      "name": "donateToCampaign",
      "outputs": [],
      "stateMutability": "payable",
      "type": "function",
      "payable": true
    },
    {
      "inputs": [
        {
          "internalType": "uint256",
          "name": "index",
          "type": "uint256"
        },
        {
          "internalType": "string",
          "name": "_title",
          "type": "string"
        },
        {
          "internalType": "string",
          "name": "_description",
          "type": "string"
        },
        {
          "internalType": "string",
          "name": "_imageUrl",
          "type": "string"
        },
        {
          "internalType": "uint256",
          "name": "_target",
          "type": "uint256"
        },
        {
          "internalType": "string",
          "name": "_deadline",
          "type": "string"
        }
      ],
      "name": "updateCampaign",
      "outputs": [],
      "stateMutability": "nonpayable",
      "type": "function"
    }
  ],
  "bytecode": "0x6080604052600060015534801561001557600080fd5b50611d04806100256000396000f3fe6080604052600436106100705760003560e01c806342a4fda81161004e57806342a4fda81461010e578063460948f41461012a578063a6b0363314610153578063d993de621461017e57610070565b806307ca140d14610075578063141961bc146100a05780632ee97fdb146100e5575b600080fd5b34801561008157600080fd5b5061008a6101bb565b6040516100979190610f67565b60405180910390f35b3480156100ac57600080fd5b506100c760048036038101906100c29190610fc2565b6101c1565b6040516100dc999897969594939291906110db565b60405180910390f35b3480156100f157600080fd5b5061010c600480360381019061010791906112b9565b61046c565b005b61012860048036038101906101239190610fc2565b61055f565b005b34801561013657600080fd5b50610151600480360381019061014c91906113b6565b6106d1565b005b34801561015f57600080fd5b5061016861089a565b60405161017591906116b4565b60405180910390f35b34801561018a57600080fd5b506101a560048036038101906101a09190610fc2565b610bd1565b6040516101b291906117b0565b60405180910390f35b60015481565b600081815481106101d157600080fd5b90600052602060002090600902016000915090508060000160009054906101000a900473ffffffffffffffffffffffffffffffffffffffff169080600101805461021a90611801565b80601f016020809104026020016040519081016040528092919081815260200182805461024690611801565b80156102935780601f1061026857610100808354040283529160200191610293565b820191906000526020600020905b81548152906001019060200180831161027657829003601f168201915b5050505050908060020180546102a890611801565b80601f01602080910402602001604051908101604052809291908181526020018280546102d490611801565b80156103215780601f106102f657610100808354040283529160200191610321565b820191906000526020600020905b81548152906001019060200180831161030457829003601f168201915b50505050509080600301805461033690611801565b80601f016020809104026020016040519081016040528092919081815260200182805461036290611801565b80156103af5780601f10610384576101008083540402835291602001916103af565b820191906000526020600020905b81548152906001019060200180831161039257829003601f168201915b5050505050908060040154908060050180546103ca90611801565b80601f01602080910402602001604051908101604052809291908181526020018280546103f690611801565b80156104435780601f1061041857610100808354040283529160200191610443565b820191906000526020600020905b81548152906001019060200180831161042657829003601f168201915b5050505050908060060154908060070154908060080160009054906101000a900460ff16905089565b60008054905086106104b3576040517f08c379a00000000000000000000000000000000000000000000000000000000081526004016104aa9061187e565b60405180910390fd5b60008087815481106104c8576104c761189e565b5b90600052602060002090600902019050858160010190816104e99190611a79565b50848160020190816104fb9190611a79565b508381600301908161050d9190611a79565b508181600501908161051f9190611a79565b5082816004018190555080600401548160060154106105565760018160080160006101000a81548160ff0219169083151502179055505b50505050505050565b60008054905081106105a6576040517f08c379a000000000000000000000000000000000000000000000000000000000815260040161059d9061187e565b60405180910390fd5b60008082815481106105bb576105ba61189e565b5b906000526020600020906009020190508060080160009054906101000a900460ff161561061d576040517f08c379a000000000000000000000000000000000000000000000000000000000815260040161061490611b97565b60405180910390fd5b8060000160009054906101000a900473ffffffffffffffffffffffffffffffffffffffff1673ffffffffffffffffffffffffffffffffffffffff166108fc349081150290604051600060405180830381858888f19350505050158015610687573d6000803e3d6000fd5b503481600601546106989190611be6565b816006018190555080600401548160060154106106cd5760018160080160006101000a81548160ff0219169083151502179055505b5050565b60008211610714576040517f08c379a000000000000000000000000000000000000000000000000000000000815260040161070b90611c66565b60405180910390fd5b60006040518061012001604052803373ffffffffffffffffffffffffffffffffffffffff16815260200187815260200186815260200185815260200184815260200183815260200160008152602001600154815260200160001515815250908060018154018082558091505060019003906000526020600020906009020160009091909190915060008201518160000160006101000a81548173ffffffffffffffffffffffffffffffffffffffff021916908373ffffffffffffffffffffffffffffffffffffffff16021790555060208201518160010190816107f79190611a79565b50604082015181600201908161080d9190611a79565b5060608201518160030190816108239190611a79565b506080820151816004015560a08201518160050190816108439190611a79565b5060c0820151816006015560e082015181600701556101008201518160080160006101000a81548160ff02191690831515021790555050506001600081548092919061088e90611c86565b91905055505050505050565b60606000805480602002602001604051908101604052809291908181526020016000905b82821015610bc85783829060005260206000209060090201604051806101200160405290816000820160009054906101000a900473ffffffffffffffffffffffffffffffffffffffff1673ffffffffffffffffffffffffffffffffffffffff1673ffffffffffffffffffffffffffffffffffffffff16815260200160018201805461094890611801565b80601f016020809104026020016040519081016040528092919081815260200182805461097490611801565b80156109c15780601f10610996576101008083540402835291602001916109c1565b820191906000526020600020905b8154815290600101906020018083116109a457829003601f168201915b505050505081526020016002820180546109da90611801565b80601f0160208091040260200160405190810160405280929190818152602001828054610a0690611801565b8015610a535780601f10610a2857610100808354040283529160200191610a53565b820191906000526020600020905b815481529060010190602001808311610a3657829003601f168201915b50505050508152602001600382018054610a6c90611801565b80601f0160208091040260200160405190810160405280929190818152602001828054610a9890611801565b8015610ae55780601f10610aba57610100808354040283529160200191610ae5565b820191906000526020600020905b815481529060010190602001808311610ac857829003601f168201915b5050505050815260200160048201548152602001600582018054610b0890611801565b80601f0160208091040260200160405190810160405280929190818152602001828054610b3490611801565b8015610b815780601f10610b5657610100808354040283529160200191610b81565b820191906000526020600020905b815481529060010190602001808311610b6457829003601f168201915b5050505050815260200160068201548152602001600782015481526020016008820160009054906101000a900460ff161515151581525050815260200190600101906108be565b50505050905090565b610bd9610eea565b6000808381548110610bee57610bed61189e565b5b9060005260206000209060090201604051806101200160405290816000820160009054906101000a900473ffffffffffffffffffffffffffffffffffffffff1673ffffffffffffffffffffffffffffffffffffffff1673ffffffffffffffffffffffffffffffffffffffff168152602001600182018054610c6e90611801565b80601f0160208091040260200160405190810160405280929190818152602001828054610c9a90611801565b8015610ce75780601f10610cbc57610100808354040283529160200191610ce7565b820191906000526020600020905b815481529060010190602001808311610cca57829003601f168201915b50505050508152602001600282018054610d0090611801565b80601f0160208091040260200160405190810160405280929190818152602001828054610d2c90611801565b8015610d795780601f10610d4e57610100808354040283529160200191610d79565b820191906000526020600020905b815481529060010190602001808311610d5c57829003601f168201915b50505050508152602001600382018054610d9290611801565b80601f0160208091040260200160405190810160405280929190818152602001828054610dbe90611801565b8015610e0b5780601f10610de057610100808354040283529160200191610e0b565b820191906000526020600020905b815481529060010190602001808311610dee57829003601f168201915b5050505050815260200160048201548152602001600582018054610e2e90611801565b80601f0160208091040260200160405190810160405280929190818152602001828054610e5a90611801565b8015610ea75780601f10610e7c57610100808354040283529160200191610ea7565b820191906000526020600020905b815481529060010190602001808311610e8a57829003601f168201915b5050505050815260200160068201548152602001600782015481526020016008820160009054906101000a900460ff161515151581525050905080915050919050565b604051806101200160405280600073ffffffffffffffffffffffffffffffffffffffff168152602001606081526020016060815260200160608152602001600081526020016060815260200160008152602001600081526020016000151581525090565b6000819050919050565b610f6181610f4e565b82525050565b6000602082019050610f7c6000830184610f58565b92915050565b6000604051905090565b600080fd5b600080fd5b610f9f81610f4e565b8114610faa57600080fd5b50565b600081359050610fbc81610f96565b92915050565b600060208284031215610fd857610fd7610f8c565b5b6000610fe684828501610fad565b91505092915050565b600073ffffffffffffffffffffffffffffffffffffffff82169050919050565b600061101a82610fef565b9050919050565b61102a8161100f565b82525050565b600081519050919050565b600082825260208201905092915050565b60005b8381101561106a57808201518184015260208101905061104f565b60008484015250505050565b6000601f19601f8301169050919050565b600061109282611030565b61109c818561103b565b93506110ac81856020860161104c565b6110b581611076565b840191505092915050565b60008115159050919050565b6110d5816110c0565b82525050565b6000610120820190506110f1600083018c611021565b8181036020830152611103818b611087565b90508181036040830152611117818a611087565b9050818103606083015261112b8189611087565b905061113a6080830188610f58565b81810360a083015261114c8187611087565b905061115b60c0830186610f58565b61116860e0830185610f58565b6111766101008301846110cc565b9a9950505050505050505050565b600080fd5b600080fd5b7f4e487b7100000000000000000000000000000000000000000000000000000000600052604160045260246000fd5b6111c682611076565b810181811067ffffffffffffffff821117156111e5576111e461118e565b5b80604052505050565b60006111f8610f82565b905061120482826111bd565b919050565b600067ffffffffffffffff8211156112245761122361118e565b5b61122d82611076565b9050602081019050919050565b82818337600083830152505050565b600061125c61125784611209565b6111ee565b90508281526020810184848401111561127857611277611189565b5b61128384828561123a565b509392505050565b600082601f8301126112a05761129f611184565b5b81356112b0848260208601611249565b91505092915050565b60008060008060008060c087890312156112d6576112d5610f8c565b5b60006112e489828a01610fad565b965050602087013567ffffffffffffffff81111561130557611304610f91565b5b61131189828a0161128b565b955050604087013567ffffffffffffffff81111561133257611331610f91565b5b61133e89828a0161128b565b945050606087013567ffffffffffffffff81111561135f5761135e610f91565b5b61136b89828a0161128b565b935050608061137c89828a01610fad565b92505060a087013567ffffffffffffffff81111561139d5761139c610f91565b5b6113a989828a0161128b565b9150509295509295509295565b600080600080600060a086880312156113d2576113d1610f8c565b5b600086013567ffffffffffffffff8111156113f0576113ef610f91565b5b6113fc8882890161128b565b955050602086013567ffffffffffffffff81111561141d5761141c610f91565b5b6114298882890161128b565b945050604086013567ffffffffffffffff81111561144a57611449610f91565b5b6114568882890161128b565b935050606061146788828901610fad565b925050608086013567ffffffffffffffff81111561148857611487610f91565b5b6114948882890161128b565b9150509295509295909350565b600081519050919050565b600082825260208201905092915050565b6000819050602082019050919050565b6114d68161100f565b82525050565b600082825260208201905092915050565b60006114f882611030565b61150281856114dc565b935061151281856020860161104c565b61151b81611076565b840191505092915050565b61152f81610f4e565b82525050565b61153e816110c0565b82525050565b60006101208301600083015161155d60008601826114cd565b506020830151848203602086015261157582826114ed565b9150506040830151848203604086015261158f82826114ed565b915050606083015184820360608601526115a982826114ed565b91505060808301516115be6080860182611526565b5060a083015184820360a08601526115d682826114ed565b91505060c08301516115eb60c0860182611526565b5060e08301516115fe60e0860182611526565b50610100830151611613610100860182611535565b508091505092915050565b600061162a8383611544565b905092915050565b6000602082019050919050565b600061164a826114a1565b61165481856114ac565b935083602082028501611666856114bd565b8060005b858110156116a25784840389528151611683858261161e565b945061168e83611632565b925060208a0199505060018101905061166a565b50829750879550505050505092915050565b600060208201905081810360008301526116ce818461163f565b905092915050565b6000610120830160008301516116ef60008601826114cd565b506020830151848203602086015261170782826114ed565b9150506040830151848203604086015261172182826114ed565b9150506060830151848203606086015261173b82826114ed565b91505060808301516117506080860182611526565b5060a083015184820360a086015261176882826114ed565b91505060c083015161177d60c0860182611526565b5060e083015161179060e0860182611526565b506101008301516117a5610100860182611535565b508091505092915050565b600060208201905081810360008301526117ca81846116d6565b905092915050565b7f4e487b7100000000000000000000000000000000000000000000000000000000600052602260045260246000fd5b6000600282049050600182168061181957607f821691505b60208210810361182c5761182b6117d2565b5b50919050565b7f496e76616c69642063616d706169676e20696e64657800000000000000000000600082015250565b600061186860168361103b565b915061187382611832565b602082019050919050565b600060208201905081810360008301526118978161185b565b9050919050565b7f4e487b7100000000000000000000000000000000000000000000000000000000600052603260045260246000fd5b60008190508160005260206000209050919050565b60006020601f8301049050919050565b600082821b905092915050565b60006008830261192f7fffffffffffffffffffffffffffffffffffffffffffffffffffffffffffffffff826118f2565b61193986836118f2565b95508019841693508086168417925050509392505050565b6000819050919050565b600061197661197161196c84610f4e565b611951565b610f4e565b9050919050565b6000819050919050565b6119908361195b565b6119a461199c8261197d565b8484546118ff565b825550505050565b600090565b6119b96119ac565b6119c4818484611987565b505050565b5b818110156119e8576119dd6000826119b1565b6001810190506119ca565b5050565b601f821115611a2d576119fe816118cd565b611a07846118e2565b81016020851015611a16578190505b611a2a611a22856118e2565b8301826119c9565b50505b505050565b600082821c905092915050565b6000611a5060001984600802611a32565b1980831691505092915050565b6000611a698383611a3f565b9150826002028217905092915050565b611a8282611030565b67ffffffffffffffff811115611a9b57611a9a61118e565b5b611aa58254611801565b611ab08282856119ec565b600060209050601f831160018114611ae35760008415611ad1578287015190505b611adb8582611a5d565b865550611b43565b601f198416611af1866118cd565b60005b82811015611b1957848901518255600182019150602085019450602081019050611af4565b86831015611b365784890151611b32601f891682611a3f565b8355505b6001600288020188555050505b505050505050565b7f43616d706169676e20636f6d706c657465640000000000000000000000000000600082015250565b6000611b8160128361103b565b9150611b8c82611b4b565b602082019050919050565b60006020820190508181036000830152611bb081611b74565b9050919050565b7f4e487b7100000000000000000000000000000000000000000000000000000000600052601160045260246000fd5b6000611bf182610f4e565b9150611bfc83610f4e565b9250828201905080821115611c1457611c13611bb7565b5b92915050565b7f54617267657420616d6f756e74206d757374206e6f74206265207a65726f0000600082015250565b6000611c50601e8361103b565b9150611c5b82611c1a565b602082019050919050565b60006020820190508181036000830152611c7f81611c43565b9050919050565b6000611c9182610f4e565b91507fffffffffffffffffffffffffffffffffffffffffffffffffffffffffffffffff8203611cc357611cc2611bb7565b5b60018201905091905056fea2646970667358221220c30cac9a3c6a059dbb6674aef4dc6497834b78ec03efe7d01276b48b1fb47c7364736f6c63430008130033",
  "immutableReferences": {},
  "source": "// SPDX-License-Identifier: UNLICENSED\npragma solidity ^0.8.9;\n\ncontract CrowdFunding{\n    struct Campaign{\n        address payable receipientAddress;\n        string title;\n        string description;\n        string imageUrl;\n        uint target;\n        string deadline;\n        uint received;\n        uint id;\n        bool completed;\n    }\n    Campaign[] public campaigns;\n    uint public numberOfCampaigns = 0;\n    function addCampaigns(string memory _title, string memory _description, string memory _imageUrl, uint _target, string memory _deadline ) public {\n        require(_target > 0,\"Target amount must not be zero\");\n        campaigns.push(Campaign({\n            receipientAddress:payable(msg.sender),\n            title:_title,\n            description:_description,\n            imageUrl:_imageUrl,\n            target:_target,\n            deadline:_deadline,\n            received:0,\n            id:numberOfCampaigns,\n            completed:false\n        }));\n        numberOfCampaigns++;\n    }\n    function getCampaigns() public view returns(Campaign[] memory){\n        return campaigns;\n    } \n    function getCampaignDetails(uint index) public view returns(Campaign memory){\n        Campaign memory campaign = campaigns[index];\n        return campaign;\n    }\n    function donateToCampaign(uint index) public payable {\n        require(index < campaigns.length, \"Invalid campaign index\");\n        Campaign storage campaign = campaigns[index];\n        require(!campaign.completed,\"Campaign completed\");\n        campaign.receipientAddress.transfer(msg.value);\n        campaign.received = campaign.received + msg.value; \n        if(campaign.received>=campaign.target){\n            campaign.completed = true;\n        }\n    }\n\n     function updateCampaign(uint index,string memory _title, string memory _description, string memory _imageUrl, uint _target, string memory _deadline) public {\n        require(index<campaigns.length,\"Invalid campaign index\");\n        Campaign storage campaign = campaigns[index];\n        campaign.title = _title;\n        campaign.description = _description;\n        campaign.imageUrl = _imageUrl;\n        campaign.deadline = _deadline;\n        campaign.target = _target;\n        if(campaign.received>=campaign.target){\n            campaign.completed = true;\n        }\n    } \n}",
  "sourcePath": "/Users/uday/Desktop/Blockchain/project/contracts/CrowdFunding.sol",
  "compiler": {
    "name": "solc",
    "version": "0.8.19+commit.7dd6d404.Emscripten.clang"
  },
  "schemaVersion": "3.4.12",
  "updatedAt": "2023-04-05T14:23:56.019Z",
  "networkType": "ethereum",
  "devdoc": {
    "kind": "dev",
    "methods": {},
    "version": 1
  },
  "userdoc": {
    "kind": "user",
    "methods": {},
    "version": 1
  }
}