{
  "contractName": "CrowdFunding",
  "abi": [
    {
      "inputs": [],
      "stateMutability": "nonpayable",
      "type": "constructor"
    },
    {
      "inputs": [],
      "name": "campaignDonorsList",
      "outputs": [
        {
          "internalType": "contract CampaignDonors",
          "name": "",
          "type": "address"
        }
      ],
      "stateMutability": "view",
      "type": "function",
      "constant": true
    },
    {
      "inputs": [
        {
          "internalType": "uint256",
          "name": "",
          "type": "uint256"
        }
      ],
      "name": "campaigns",
      "outputs": [
        {
          "internalType": "address payable",
          "name": "receipientAddress",
          "type": "address"
        },
        {
          "internalType": "string",
          "name": "title",
          "type": "string"
        },
        {
          "internalType": "string",
          "name": "description",
          "type": "string"
        },
        {
          "internalType": "string",
          "name": "imageUrl",
          "type": "string"
        },
        {
          "internalType": "uint256",
          "name": "target",
          "type": "uint256"
        },
        {
          "internalType": "string",
          "name": "deadline",
          "type": "string"
        },
        {
          "internalType": "uint256",
          "name": "received",
          "type": "uint256"
        },
        {
          "internalType": "uint256",
          "name": "id",
          "type": "uint256"
        },
        {
          "internalType": "bool",
          "name": "completed",
          "type": "bool"
        }
      ],
      "stateMutability": "view",
      "type": "function",
      "constant": true
    },
    {
      "inputs": [],
      "name": "donorHistory",
      "outputs": [
        {
          "internalType": "contract DonorHistory",
          "name": "",
          "type": "address"
        }
      ],
      "stateMutability": "view",
      "type": "function",
      "constant": true
    },
    {
      "inputs": [],
      "name": "numberOfCampaigns",
      "outputs": [
        {
          "internalType": "uint256",
          "name": "",
          "type": "uint256"
        }
      ],
      "stateMutability": "view",
      "type": "function",
      "constant": true
    },
    {
      "inputs": [
        {
          "internalType": "string",
          "name": "_title",
          "type": "string"
        },
        {
          "internalType": "string",
          "name": "_description",
          "type": "string"
        },
        {
          "internalType": "string",
          "name": "_imageUrl",
          "type": "string"
        },
        {
          "internalType": "uint256",
          "name": "_target",
          "type": "uint256"
        },
        {
          "internalType": "string",
          "name": "_deadline",
          "type": "string"
        }
      ],
      "name": "addCampaigns",
      "outputs": [],
      "stateMutability": "nonpayable",
      "type": "function"
    },
    {
      "inputs": [
        {
          "internalType": "address",
          "name": "_address",
          "type": "address"
        }
      ],
      "name": "getDonorDonationHistory",
      "outputs": [
        {
          "components": [
            {
              "internalType": "uint256",
              "name": "amount",
              "type": "uint256"
            },
            {
              "internalType": "uint256",
              "name": "campaignId",
              "type": "uint256"
            }
          ],
          "internalType": "struct DonorHistory.History[]",
          "name": "",
          "type": "tuple[]"
        }
      ],
      "stateMutability": "view",
      "type": "function",
      "constant": true
    },
    {
      "inputs": [
        {
          "internalType": "uint256",
          "name": "_id",
          "type": "uint256"
        }
      ],
      "name": "getCampaignDonorsList",
      "outputs": [
        {
          "components": [
            {
              "internalType": "address",
              "name": "donor",
              "type": "address"
            },
            {
              "internalType": "uint256",
              "name": "amount",
              "type": "uint256"
            }
          ],
          "internalType": "struct CampaignDonors.CampaignDonor[]",
          "name": "",
          "type": "tuple[]"
        }
      ],
      "stateMutability": "view",
      "type": "function",
      "constant": true
    },
    {
      "inputs": [],
      "name": "getCampaigns",
      "outputs": [
        {
          "components": [
            {
              "internalType": "address payable",
              "name": "receipientAddress",
              "type": "address"
            },
            {
              "internalType": "string",
              "name": "title",
              "type": "string"
            },
            {
              "internalType": "string",
              "name": "description",
              "type": "string"
            },
            {
              "internalType": "string",
              "name": "imageUrl",
              "type": "string"
            },
            {
              "internalType": "uint256",
              "name": "target",
              "type": "uint256"
            },
            {
              "internalType": "string",
              "name": "deadline",
              "type": "string"
            },
            {
              "internalType": "uint256",
              "name": "received",
              "type": "uint256"
            },
            {
              "internalType": "uint256",
              "name": "id",
              "type": "uint256"
            },
            {
              "internalType": "bool",
              "name": "completed",
              "type": "bool"
            }
          ],
          "internalType": "struct CrowdFunding.Campaign[]",
          "name": "",
          "type": "tuple[]"
        }
      ],
      "stateMutability": "view",
      "type": "function",
      "constant": true
    },
    {
      "inputs": [
        {
          "internalType": "uint256",
          "name": "index",
          "type": "uint256"
        }
      ],
      "name": "getCampaignDetails",
      "outputs": [
        {
          "components": [
            {
              "internalType": "address payable",
              "name": "receipientAddress",
              "type": "address"
            },
            {
              "internalType": "string",
              "name": "title",
              "type": "string"
            },
            {
              "internalType": "string",
              "name": "description",
              "type": "string"
            },
            {
              "internalType": "string",
              "name": "imageUrl",
              "type": "string"
            },
            {
              "internalType": "uint256",
              "name": "target",
              "type": "uint256"
            },
            {
              "internalType": "string",
              "name": "deadline",
              "type": "string"
            },
            {
              "internalType": "uint256",
              "name": "received",
              "type": "uint256"
            },
            {
              "internalType": "uint256",
              "name": "id",
              "type": "uint256"
            },
            {
              "internalType": "bool",
              "name": "completed",
              "type": "bool"
            }
          ],
          "internalType": "struct CrowdFunding.Campaign",
          "name": "",
          "type": "tuple"
        }
      ],
      "stateMutability": "view",
      "type": "function",
      "constant": true
    },
    {
      "inputs": [
        {
          "internalType": "uint256",
          "name": "index",
          "type": "uint256"
        }
      ],
      "name": "donateToCampaign",
      "outputs": [],
      "stateMutability": "payable",
      "type": "function",
      "payable": true
    },
    {
      "inputs": [
        {
          "internalType": "uint256",
          "name": "index",
          "type": "uint256"
        },
        {
          "internalType": "string",
          "name": "_title",
          "type": "string"
        },
        {
          "internalType": "string",
          "name": "_description",
          "type": "string"
        },
        {
          "internalType": "string",
          "name": "_imageUrl",
          "type": "string"
        },
        {
          "internalType": "uint256",
          "name": "_target",
          "type": "uint256"
        },
        {
          "internalType": "string",
          "name": "_deadline",
          "type": "string"
        }
      ],
      "name": "updateCampaign",
      "outputs": [],
      "stateMutability": "nonpayable",
      "type": "function"
    }
  ],
  "bytecode": "0x608060405260006003553480156200001657600080fd5b506040516200002590620000f5565b604051809103906000f08015801562000042573d6000803e3d6000fd5b50600160006101000a81548173ffffffffffffffffffffffffffffffffffffffff021916908373ffffffffffffffffffffffffffffffffffffffff160217905550604051620000919062000103565b604051809103906000f080158015620000ae573d6000803e3d6000fd5b50600260006101000a81548173ffffffffffffffffffffffffffffffffffffffff021916908373ffffffffffffffffffffffffffffffffffffffff16021790555062000111565b61054f806200287883390190565b6105c78062002dc783390190565b61275780620001216000396000f3fe60806040526004361061009c5760003560e01c8063460948f411610064578063460948f414610181578063859148d1146101aa57806393ed1b33146101d5578063a6b0363314610212578063cb70d6401461023d578063d993de621461027a5761009c565b806307ca140d146100a1578063141961bc146100cc5780632286abdc146101115780632ee97fdb1461013c57806342a4fda814610165575b600080fd5b3480156100ad57600080fd5b506100b66102b7565b6040516100c39190611347565b60405180910390f35b3480156100d857600080fd5b506100f360048036038101906100ee91906113a2565b6102bd565b604051610108999897969594939291906114bb565b60405180910390f35b34801561011d57600080fd5b50610126610568565b60405161013391906115c3565b60405180910390f35b34801561014857600080fd5b50610163600480360381019061015e9190611713565b61058e565b005b61017f600480360381019061017a91906113a2565b6106a3565b005b34801561018d57600080fd5b506101a860048036038101906101a39190611810565b610937565b005b3480156101b657600080fd5b506101bf610b00565b6040516101cc919061191c565b60405180910390f35b3480156101e157600080fd5b506101fc60048036038101906101f791906113a2565b610b26565b6040516102099190611a45565b60405180910390f35b34801561021e57600080fd5b50610227610bd0565b6040516102349190611c6b565b60405180910390f35b34801561024957600080fd5b50610264600480360381019061025f9190611cb9565b610f07565b6040516102719190611dc4565b60405180910390f35b34801561028657600080fd5b506102a1600480360381019061029c91906113a2565b610fb1565b6040516102ae9190611ec0565b60405180910390f35b60035481565b600081815481106102cd57600080fd5b90600052602060002090600902016000915090508060000160009054906101000a900473ffffffffffffffffffffffffffffffffffffffff169080600101805461031690611f11565b80601f016020809104026020016040519081016040528092919081815260200182805461034290611f11565b801561038f5780601f106103645761010080835404028352916020019161038f565b820191906000526020600020905b81548152906001019060200180831161037257829003601f168201915b5050505050908060020180546103a490611f11565b80601f01602080910402602001604051908101604052809291908181526020018280546103d090611f11565b801561041d5780601f106103f25761010080835404028352916020019161041d565b820191906000526020600020905b81548152906001019060200180831161040057829003601f168201915b50505050509080600301805461043290611f11565b80601f016020809104026020016040519081016040528092919081815260200182805461045e90611f11565b80156104ab5780601f10610480576101008083540402835291602001916104ab565b820191906000526020600020905b81548152906001019060200180831161048e57829003601f168201915b5050505050908060040154908060050180546104c690611f11565b80601f01602080910402602001604051908101604052809291908181526020018280546104f290611f11565b801561053f5780601f106105145761010080835404028352916020019161053f565b820191906000526020600020905b81548152906001019060200180831161052257829003601f168201915b5050505050908060060154908060070154908060080160009054906101000a900460ff16905089565b600160009054906101000a900473ffffffffffffffffffffffffffffffffffffffff1681565b60008054905086106105d5576040517f08c379a00000000000000000000000000000000000000000000000000000000081526004016105cc90611f8e565b60405180910390fd5b60008087815481106105ea576105e9611fae565b5b906000526020600020906009020190508581600101908161060b919061217f565b508481600201908161061d919061217f565b508381600301908161062f919061217f565b5081816005019081610641919061217f565b50828160040181905550806004015481600601541061067c5760018160080160006101000a81548160ff02191690831515021790555061069a565b60008160080160006101000a81548160ff0219169083151502179055505b50505050505050565b60008054905081106106ea576040517f08c379a00000000000000000000000000000000000000000000000000000000081526004016106e190611f8e565b60405180910390fd5b60008082815481106106ff576106fe611fae565b5b906000526020600020906009020190508060080160009054906101000a900460ff1615610761576040517f08c379a00000000000000000000000000000000000000000000000000000000081526004016107589061229d565b60405180910390fd5b8060000160009054906101000a900473ffffffffffffffffffffffffffffffffffffffff1673ffffffffffffffffffffffffffffffffffffffff166108fc349081150290604051600060405180830381858888f193505050501580156107cb573d6000803e3d6000fd5b503481600601546107dc91906122ec565b8160060181905550600160009054906101000a900473ffffffffffffffffffffffffffffffffffffffff1673ffffffffffffffffffffffffffffffffffffffff16632d12af6a3484336040518463ffffffff1660e01b81526004016108439392919061232f565b600060405180830381600087803b15801561085d57600080fd5b505af1158015610871573d6000803e3d6000fd5b50505050600260009054906101000a900473ffffffffffffffffffffffffffffffffffffffff1673ffffffffffffffffffffffffffffffffffffffff1663245b51548334336040518463ffffffff1660e01b81526004016108d49392919061232f565b600060405180830381600087803b1580156108ee57600080fd5b505af1158015610902573d6000803e3d6000fd5b5050505080600401548160060154106109335760018160080160006101000a81548160ff0219169083151502179055505b5050565b6000821161097a576040517f08c379a0000000000000000000000000000000000000000000000000000000008152600401610971906123b2565b60405180910390fd5b60006040518061012001604052803373ffffffffffffffffffffffffffffffffffffffff16815260200187815260200186815260200185815260200184815260200183815260200160008152602001600354815260200160001515815250908060018154018082558091505060019003906000526020600020906009020160009091909190915060008201518160000160006101000a81548173ffffffffffffffffffffffffffffffffffffffff021916908373ffffffffffffffffffffffffffffffffffffffff1602179055506020820151816001019081610a5d919061217f565b506040820151816002019081610a73919061217f565b506060820151816003019081610a89919061217f565b506080820151816004015560a0820151816005019081610aa9919061217f565b5060c0820151816006015560e082015181600701556101008201518160080160006101000a81548160ff021916908315150217905550505060036000815480929190610af4906123d2565b91905055505050505050565b600260009054906101000a900473ffffffffffffffffffffffffffffffffffffffff1681565b6060600260009054906101000a900473ffffffffffffffffffffffffffffffffffffffff1673ffffffffffffffffffffffffffffffffffffffff1663209b7d5f836040518263ffffffff1660e01b8152600401610b839190611347565b600060405180830381865afa158015610ba0573d6000803e3d6000fd5b505050506040513d6000823e3d601f19601f82011682018060405250810190610bc99190612561565b9050919050565b60606000805480602002602001604051908101604052809291908181526020016000905b82821015610efe5783829060005260206000209060090201604051806101200160405290816000820160009054906101000a900473ffffffffffffffffffffffffffffffffffffffff1673ffffffffffffffffffffffffffffffffffffffff1673ffffffffffffffffffffffffffffffffffffffff168152602001600182018054610c7e90611f11565b80601f0160208091040260200160405190810160405280929190818152602001828054610caa90611f11565b8015610cf75780601f10610ccc57610100808354040283529160200191610cf7565b820191906000526020600020905b815481529060010190602001808311610cda57829003601f168201915b50505050508152602001600282018054610d1090611f11565b80601f0160208091040260200160405190810160405280929190818152602001828054610d3c90611f11565b8015610d895780601f10610d5e57610100808354040283529160200191610d89565b820191906000526020600020905b815481529060010190602001808311610d6c57829003601f168201915b50505050508152602001600382018054610da290611f11565b80601f0160208091040260200160405190810160405280929190818152602001828054610dce90611f11565b8015610e1b5780601f10610df057610100808354040283529160200191610e1b565b820191906000526020600020905b815481529060010190602001808311610dfe57829003601f168201915b5050505050815260200160048201548152602001600582018054610e3e90611f11565b80601f0160208091040260200160405190810160405280929190818152602001828054610e6a90611f11565b8015610eb75780601f10610e8c57610100808354040283529160200191610eb7565b820191906000526020600020905b815481529060010190602001808311610e9a57829003601f168201915b5050505050815260200160068201548152602001600782015481526020016008820160009054906101000a900460ff16151515158152505081526020019060010190610bf4565b50505050905090565b6060600160009054906101000a900473ffffffffffffffffffffffffffffffffffffffff1673ffffffffffffffffffffffffffffffffffffffff16633e4cbf42836040518263ffffffff1660e01b8152600401610f6491906125aa565b600060405180830381865afa158015610f81573d6000803e3d6000fd5b505050506040513d6000823e3d601f19601f82011682018060405250810190610faa91906126d8565b9050919050565b610fb96112ca565b6000808381548110610fce57610fcd611fae565b5b9060005260206000209060090201604051806101200160405290816000820160009054906101000a900473ffffffffffffffffffffffffffffffffffffffff1673ffffffffffffffffffffffffffffffffffffffff1673ffffffffffffffffffffffffffffffffffffffff16815260200160018201805461104e90611f11565b80601f016020809104026020016040519081016040528092919081815260200182805461107a90611f11565b80156110c75780601f1061109c576101008083540402835291602001916110c7565b820191906000526020600020905b8154815290600101906020018083116110aa57829003601f168201915b505050505081526020016002820180546110e090611f11565b80601f016020809104026020016040519081016040528092919081815260200182805461110c90611f11565b80156111595780601f1061112e57610100808354040283529160200191611159565b820191906000526020600020905b81548152906001019060200180831161113c57829003601f168201915b5050505050815260200160038201805461117290611f11565b80601f016020809104026020016040519081016040528092919081815260200182805461119e90611f11565b80156111eb5780601f106111c0576101008083540402835291602001916111eb565b820191906000526020600020905b8154815290600101906020018083116111ce57829003601f168201915b505050505081526020016004820154815260200160058201805461120e90611f11565b80601f016020809104026020016040519081016040528092919081815260200182805461123a90611f11565b80156112875780601f1061125c57610100808354040283529160200191611287565b820191906000526020600020905b81548152906001019060200180831161126a57829003601f168201915b5050505050815260200160068201548152602001600782015481526020016008820160009054906101000a900460ff161515151581525050905080915050919050565b604051806101200160405280600073ffffffffffffffffffffffffffffffffffffffff168152602001606081526020016060815260200160608152602001600081526020016060815260200160008152602001600081526020016000151581525090565b6000819050919050565b6113418161132e565b82525050565b600060208201905061135c6000830184611338565b92915050565b6000604051905090565b600080fd5b600080fd5b61137f8161132e565b811461138a57600080fd5b50565b60008135905061139c81611376565b92915050565b6000602082840312156113b8576113b761136c565b5b60006113c68482850161138d565b91505092915050565b600073ffffffffffffffffffffffffffffffffffffffff82169050919050565b60006113fa826113cf565b9050919050565b61140a816113ef565b82525050565b600081519050919050565b600082825260208201905092915050565b60005b8381101561144a57808201518184015260208101905061142f565b60008484015250505050565b6000601f19601f8301169050919050565b600061147282611410565b61147c818561141b565b935061148c81856020860161142c565b61149581611456565b840191505092915050565b60008115159050919050565b6114b5816114a0565b82525050565b6000610120820190506114d1600083018c611401565b81810360208301526114e3818b611467565b905081810360408301526114f7818a611467565b9050818103606083015261150b8189611467565b905061151a6080830188611338565b81810360a083015261152c8187611467565b905061153b60c0830186611338565b61154860e0830185611338565b6115566101008301846114ac565b9a9950505050505050505050565b6000819050919050565b600061158961158461157f846113cf565b611564565b6113cf565b9050919050565b600061159b8261156e565b9050919050565b60006115ad82611590565b9050919050565b6115bd816115a2565b82525050565b60006020820190506115d860008301846115b4565b92915050565b600080fd5b600080fd5b7f4e487b7100000000000000000000000000000000000000000000000000000000600052604160045260246000fd5b61162082611456565b810181811067ffffffffffffffff8211171561163f5761163e6115e8565b5b80604052505050565b6000611652611362565b905061165e8282611617565b919050565b600067ffffffffffffffff82111561167e5761167d6115e8565b5b61168782611456565b9050602081019050919050565b82818337600083830152505050565b60006116b66116b184611663565b611648565b9050828152602081018484840111156116d2576116d16115e3565b5b6116dd848285611694565b509392505050565b600082601f8301126116fa576116f96115de565b5b813561170a8482602086016116a3565b91505092915050565b60008060008060008060c087890312156117305761172f61136c565b5b600061173e89828a0161138d565b965050602087013567ffffffffffffffff81111561175f5761175e611371565b5b61176b89828a016116e5565b955050604087013567ffffffffffffffff81111561178c5761178b611371565b5b61179889828a016116e5565b945050606087013567ffffffffffffffff8111156117b9576117b8611371565b5b6117c589828a016116e5565b93505060806117d689828a0161138d565b92505060a087013567ffffffffffffffff8111156117f7576117f6611371565b5b61180389828a016116e5565b9150509295509295509295565b600080600080600060a0868803121561182c5761182b61136c565b5b600086013567ffffffffffffffff81111561184a57611849611371565b5b611856888289016116e5565b955050602086013567ffffffffffffffff81111561187757611876611371565b5b611883888289016116e5565b945050604086013567ffffffffffffffff8111156118a4576118a3611371565b5b6118b0888289016116e5565b93505060606118c18882890161138d565b925050608086013567ffffffffffffffff8111156118e2576118e1611371565b5b6118ee888289016116e5565b9150509295509295909350565b600061190682611590565b9050919050565b611916816118fb565b82525050565b6000602082019050611931600083018461190d565b92915050565b600081519050919050565b600082825260208201905092915050565b6000819050602082019050919050565b600061196e826113cf565b9050919050565b61197e81611963565b82525050565b61198d8161132e565b82525050565b6040820160008201516119a96000850182611975565b5060208201516119bc6020850182611984565b50505050565b60006119ce8383611993565b60408301905092915050565b6000602082019050919050565b60006119f282611937565b6119fc8185611942565b9350611a0783611953565b8060005b83811015611a38578151611a1f88826119c2565b9750611a2a836119da565b925050600181019050611a0b565b5085935050505092915050565b60006020820190508181036000830152611a5f81846119e7565b905092915050565b600081519050919050565b600082825260208201905092915050565b6000819050602082019050919050565b611a9c816113ef565b82525050565b600082825260208201905092915050565b6000611abe82611410565b611ac88185611aa2565b9350611ad881856020860161142c565b611ae181611456565b840191505092915050565b611af5816114a0565b82525050565b600061012083016000830151611b146000860182611a93565b5060208301518482036020860152611b2c8282611ab3565b91505060408301518482036040860152611b468282611ab3565b91505060608301518482036060860152611b608282611ab3565b9150506080830151611b756080860182611984565b5060a083015184820360a0860152611b8d8282611ab3565b91505060c0830151611ba260c0860182611984565b5060e0830151611bb560e0860182611984565b50610100830151611bca610100860182611aec565b508091505092915050565b6000611be18383611afb565b905092915050565b6000602082019050919050565b6000611c0182611a67565b611c0b8185611a72565b935083602082028501611c1d85611a83565b8060005b85811015611c595784840389528151611c3a8582611bd5565b9450611c4583611be9565b925060208a01995050600181019050611c21565b50829750879550505050505092915050565b60006020820190508181036000830152611c858184611bf6565b905092915050565b611c9681611963565b8114611ca157600080fd5b50565b600081359050611cb381611c8d565b92915050565b600060208284031215611ccf57611cce61136c565b5b6000611cdd84828501611ca4565b91505092915050565b600081519050919050565b600082825260208201905092915050565b6000819050602082019050919050565b604082016000820151611d286000850182611984565b506020820151611d3b6020850182611984565b50505050565b6000611d4d8383611d12565b60408301905092915050565b6000602082019050919050565b6000611d7182611ce6565b611d7b8185611cf1565b9350611d8683611d02565b8060005b83811015611db7578151611d9e8882611d41565b9750611da983611d59565b925050600181019050611d8a565b5085935050505092915050565b60006020820190508181036000830152611dde8184611d66565b905092915050565b600061012083016000830151611dff6000860182611a93565b5060208301518482036020860152611e178282611ab3565b91505060408301518482036040860152611e318282611ab3565b91505060608301518482036060860152611e4b8282611ab3565b9150506080830151611e606080860182611984565b5060a083015184820360a0860152611e788282611ab3565b91505060c0830151611e8d60c0860182611984565b5060e0830151611ea060e0860182611984565b50610100830151611eb5610100860182611aec565b508091505092915050565b60006020820190508181036000830152611eda8184611de6565b905092915050565b7f4e487b7100000000000000000000000000000000000000000000000000000000600052602260045260246000fd5b60006002820490506001821680611f2957607f821691505b602082108103611f3c57611f3b611ee2565b5b50919050565b7f496e76616c69642063616d706169676e20696e64657800000000000000000000600082015250565b6000611f7860168361141b565b9150611f8382611f42565b602082019050919050565b60006020820190508181036000830152611fa781611f6b565b9050919050565b7f4e487b7100000000000000000000000000000000000000000000000000000000600052603260045260246000fd5b60008190508160005260206000209050919050565b60006020601f8301049050919050565b600082821b905092915050565b60006008830261203f7fffffffffffffffffffffffffffffffffffffffffffffffffffffffffffffffff82612002565b6120498683612002565b95508019841693508086168417925050509392505050565b600061207c6120776120728461132e565b611564565b61132e565b9050919050565b6000819050919050565b61209683612061565b6120aa6120a282612083565b84845461200f565b825550505050565b600090565b6120bf6120b2565b6120ca81848461208d565b505050565b5b818110156120ee576120e36000826120b7565b6001810190506120d0565b5050565b601f8211156121335761210481611fdd565b61210d84611ff2565b8101602085101561211c578190505b61213061212885611ff2565b8301826120cf565b50505b505050565b600082821c905092915050565b600061215660001984600802612138565b1980831691505092915050565b600061216f8383612145565b9150826002028217905092915050565b61218882611410565b67ffffffffffffffff8111156121a1576121a06115e8565b5b6121ab8254611f11565b6121b68282856120f2565b600060209050601f8311600181146121e957600084156121d7578287015190505b6121e18582612163565b865550612249565b601f1984166121f786611fdd565b60005b8281101561221f578489015182556001820191506020850194506020810190506121fa565b8683101561223c5784890151612238601f891682612145565b8355505b6001600288020188555050505b505050505050565b7f43616d706169676e20636f6d706c657465640000000000000000000000000000600082015250565b600061228760128361141b565b915061229282612251565b602082019050919050565b600060208201905081810360008301526122b68161227a565b9050919050565b7f4e487b7100000000000000000000000000000000000000000000000000000000600052601160045260246000fd5b60006122f78261132e565b91506123028361132e565b925082820190508082111561231a576123196122bd565b5b92915050565b61232981611963565b82525050565b60006060820190506123446000830186611338565b6123516020830185611338565b61235e6040830184612320565b949350505050565b7f54617267657420616d6f756e74206d757374206e6f74206265207a65726f0000600082015250565b600061239c601e8361141b565b91506123a782612366565b602082019050919050565b600060208201905081810360008301526123cb8161238f565b9050919050565b60006123dd8261132e565b91507fffffffffffffffffffffffffffffffffffffffffffffffffffffffffffffffff820361240f5761240e6122bd565b5b600182019050919050565b600067ffffffffffffffff821115612435576124346115e8565b5b602082029050602081019050919050565b600080fd5b600080fd5b60008151905061245f81611c8d565b92915050565b60008151905061247481611376565b92915050565b6000604082840312156124905761248f61244b565b5b61249a6040611648565b905060006124aa84828501612450565b60008301525060206124be84828501612465565b60208301525092915050565b60006124dd6124d88461241a565b611648565b90508083825260208201905060408402830185811115612500576124ff612446565b5b835b818110156125295780612515888261247a565b845260208401935050604081019050612502565b5050509392505050565b600082601f830112612548576125476115de565b5b81516125588482602086016124ca565b91505092915050565b6000602082840312156125775761257661136c565b5b600082015167ffffffffffffffff81111561259557612594611371565b5b6125a184828501612533565b91505092915050565b60006020820190506125bf6000830184612320565b92915050565b600067ffffffffffffffff8211156125e0576125df6115e8565b5b602082029050602081019050919050565b6000604082840312156126075761260661244b565b5b6126116040611648565b9050600061262184828501612465565b600083015250602061263584828501612465565b60208301525092915050565b600061265461264f846125c5565b611648565b9050808382526020820190506040840283018581111561267757612676612446565b5b835b818110156126a0578061268c88826125f1565b845260208401935050604081019050612679565b5050509392505050565b600082601f8301126126bf576126be6115de565b5b81516126cf848260208601612641565b91505092915050565b6000602082840312156126ee576126ed61136c565b5b600082015167ffffffffffffffff81111561270c5761270b611371565b5b612718848285016126aa565b9150509291505056fea26469706673582212202cf7a588e3f343f892dcf1ea6c3c0e5426ca992971a63a3818aa7d6031ddcb1064736f6c63430008130033608060405234801561001057600080fd5b5061052f806100206000396000f3fe6080604052600436106100345760003560e01c80632d12af6a146100395780633e4cbf42146100555780637969f3b814610092575b600080fd5b610053600480360381019061004e91906102f2565b6100d0565b005b34801561006157600080fd5b5061007c60048036038101906100779190610345565b610167565b604051610089919061045f565b60405180910390f35b34801561009e57600080fd5b506100b960048036038101906100b49190610481565b610218565b6040516100c79291906104d0565b60405180910390f35b6000808273ffffffffffffffffffffffffffffffffffffffff1673ffffffffffffffffffffffffffffffffffffffff168152602001908152602001600020604051806040016040528085815260200184815250908060018154018082558091505060019003906000526020600020906002020160009091909190915060008201518160000155602082015181600101555050505050565b60606000808373ffffffffffffffffffffffffffffffffffffffff1673ffffffffffffffffffffffffffffffffffffffff168152602001908152602001600020805480602002602001604051908101604052809291908181526020016000905b8282101561020d578382906000526020600020906002020160405180604001604052908160008201548152602001600182015481525050815260200190600101906101c7565b505050509050919050565b6000602052816000526040600020818154811061023457600080fd5b9060005260206000209060020201600091509150508060000154908060010154905082565b600080fd5b6000819050919050565b6102718161025e565b811461027c57600080fd5b50565b60008135905061028e81610268565b92915050565b600073ffffffffffffffffffffffffffffffffffffffff82169050919050565b60006102bf82610294565b9050919050565b6102cf816102b4565b81146102da57600080fd5b50565b6000813590506102ec816102c6565b92915050565b60008060006060848603121561030b5761030a610259565b5b60006103198682870161027f565b935050602061032a8682870161027f565b925050604061033b868287016102dd565b9150509250925092565b60006020828403121561035b5761035a610259565b5b6000610369848285016102dd565b91505092915050565b600081519050919050565b600082825260208201905092915050565b6000819050602082019050919050565b6103a78161025e565b82525050565b6040820160008201516103c3600085018261039e565b5060208201516103d6602085018261039e565b50505050565b60006103e883836103ad565b60408301905092915050565b6000602082019050919050565b600061040c82610372565b610416818561037d565b93506104218361038e565b8060005b8381101561045257815161043988826103dc565b9750610444836103f4565b925050600181019050610425565b5085935050505092915050565b600060208201905081810360008301526104798184610401565b905092915050565b6000806040838503121561049857610497610259565b5b60006104a6858286016102dd565b92505060206104b78582860161027f565b9150509250929050565b6104ca8161025e565b82525050565b60006040820190506104e560008301856104c1565b6104f260208301846104c1565b939250505056fea264697066735822122021e05427b184ddd7dfe32333978af60eae348b86ea5c1bfd900f92719f7923d364736f6c63430008130033608060405234801561001057600080fd5b506105a7806100206000396000f3fe608060405234801561001057600080fd5b50600436106100415760003560e01c8063209b7d5f14610046578063245b515414610076578063323b5cea14610092575b600080fd5b610060600480360381019061005b91906102ee565b6100c3565b60405161006d9190610449565b60405180910390f35b610090600480360381019061008b9190610497565b610194565b005b6100ac60048036038101906100a791906104ea565b610252565b6040516100ba929190610548565b60405180910390f35b6060600080838152602001908152602001600020805480602002602001604051908101604052809291908181526020016000905b8282101561018957838290600052602060002090600202016040518060400160405290816000820160009054906101000a900473ffffffffffffffffffffffffffffffffffffffff1673ffffffffffffffffffffffffffffffffffffffff1673ffffffffffffffffffffffffffffffffffffffff168152602001600182015481525050815260200190600101906100f7565b505050509050919050565b60008084815260200190815260200160002060405180604001604052808373ffffffffffffffffffffffffffffffffffffffff16815260200184815250908060018154018082558091505060019003906000526020600020906002020160009091909190915060008201518160000160006101000a81548173ffffffffffffffffffffffffffffffffffffffff021916908373ffffffffffffffffffffffffffffffffffffffff160217905550602082015181600101555050505050565b6000602052816000526040600020818154811061026e57600080fd5b9060005260206000209060020201600091509150508060000160009054906101000a900473ffffffffffffffffffffffffffffffffffffffff16908060010154905082565b600080fd5b6000819050919050565b6102cb816102b8565b81146102d657600080fd5b50565b6000813590506102e8816102c2565b92915050565b600060208284031215610304576103036102b3565b5b6000610312848285016102d9565b91505092915050565b600081519050919050565b600082825260208201905092915050565b6000819050602082019050919050565b600073ffffffffffffffffffffffffffffffffffffffff82169050919050565b600061037282610347565b9050919050565b61038281610367565b82525050565b610391816102b8565b82525050565b6040820160008201516103ad6000850182610379565b5060208201516103c06020850182610388565b50505050565b60006103d28383610397565b60408301905092915050565b6000602082019050919050565b60006103f68261031b565b6104008185610326565b935061040b83610337565b8060005b8381101561043c57815161042388826103c6565b975061042e836103de565b92505060018101905061040f565b5085935050505092915050565b6000602082019050818103600083015261046381846103eb565b905092915050565b61047481610367565b811461047f57600080fd5b50565b6000813590506104918161046b565b92915050565b6000806000606084860312156104b0576104af6102b3565b5b60006104be868287016102d9565b93505060206104cf868287016102d9565b92505060406104e086828701610482565b9150509250925092565b60008060408385031215610501576105006102b3565b5b600061050f858286016102d9565b9250506020610520858286016102d9565b9150509250929050565b61053381610367565b82525050565b610542816102b8565b82525050565b600060408201905061055d600083018561052a565b61056a6020830184610539565b939250505056fea2646970667358221220c6e5fb1082887b0f472203b67be9c073c34a88dc9cda878ffc566a9044be40ac64736f6c63430008130033",
  "immutableReferences": {},
  "source": "// SPDX-License-Identifier: UNLICENSED\npragma solidity ^0.8.19;\n\ncontract DonorHistory{\n    struct History{\n        uint amount;\n        uint campaignId;\n    }\n    mapping(address=>History[]) public donorHistory;\n    function addToHistory(uint _amount,uint _campaignId, address _donor) public payable {\n        donorHistory[_donor].push(History({\n            amount:_amount,\n            campaignId:_campaignId\n        }));\n    }\n    function getDonorHistory(address _donor) public view returns(History[] memory){\n        return donorHistory[_donor];\n    }\n}\n\ncontract CampaignDonors {\n    struct CampaignDonor{\n        address donor;\n        uint amount;\n    }\n    mapping(uint=>CampaignDonor[]) public campaignDonor;\n    function addDonorToCampaign(uint _id, uint _value, address _donor) public {\n        campaignDonor[_id].push(CampaignDonor({\n            amount:_value,\n            donor:_donor\n        }));\n    } \n    function getCampaignDonors(uint _id) public view returns(CampaignDonor[] memory){\n        return campaignDonor[_id];\n    }\n} \n\ncontract CrowdFunding{\n    struct Campaign{\n        address payable receipientAddress;\n        string title;\n        string description;\n        string imageUrl;\n        uint target;\n        string deadline;\n        uint received;\n        uint id;\n        bool completed;\n    }\n    Campaign[] public campaigns;\n    DonorHistory public donorHistory;\n    CampaignDonors public campaignDonorsList;\n    constructor(){\n        donorHistory = new DonorHistory();\n        campaignDonorsList = new CampaignDonors();\n    }\n    uint public numberOfCampaigns = 0;\n    function addCampaigns(string memory _title, string memory _description, string memory _imageUrl, uint _target, string memory _deadline ) public {\n        require(_target > 0,\"Target amount must not be zero\");\n        campaigns.push(Campaign({\n            receipientAddress:payable(msg.sender),\n            title:_title,\n            description:_description,\n            imageUrl:_imageUrl,\n            target:_target,\n            deadline:_deadline,\n            received:0,\n            id:numberOfCampaigns,\n            completed:false\n        }));\n        numberOfCampaigns++;\n    }\n    function getDonorDonationHistory(address _address) public view returns (DonorHistory.History[] memory) {\n        return donorHistory.getDonorHistory(_address);\n    }\n    function getCampaignDonorsList(uint _id) public view returns(CampaignDonors.CampaignDonor[] memory) {\n        return campaignDonorsList.getCampaignDonors(_id);\n    }\n    function getCampaigns() public view returns(Campaign[] memory){\n        return campaigns;\n    } \n    function getCampaignDetails(uint index) public view returns(Campaign memory){\n        Campaign memory campaign = campaigns[index];\n        return campaign;\n    }\n\n    function donateToCampaign(uint index) public payable {\n        require(index < campaigns.length, \"Invalid campaign index\");\n        Campaign storage campaign = campaigns[index];\n        require(!campaign.completed,\"Campaign completed\");\n        campaign.receipientAddress.transfer(msg.value);\n        campaign.received = campaign.received + msg.value;\n        donorHistory.addToHistory(msg.value,index,msg.sender);\n        campaignDonorsList.addDonorToCampaign(index,msg.value,msg.sender);\n        if(campaign.received>=campaign.target){\n            campaign.completed = true;\n        }\n    } \n    function updateCampaign(uint index,string memory _title, string memory _description, string memory _imageUrl, uint _target, string memory _deadline) public {\n        require(index<campaigns.length,\"Invalid campaign index\");\n        Campaign storage campaign = campaigns[index];\n        campaign.title = _title;\n        campaign.description = _description;\n        campaign.imageUrl = _imageUrl;\n        campaign.deadline = _deadline;\n        campaign.target = _target;\n        if(campaign.received>=campaign.target){\n            campaign.completed = true;\n        }\n        else{\n            campaign.completed = false;\n        }\n    }\n}",
  "sourcePath": "/Users/uday/Desktop/Blockchain/project/contracts/CrowdFunding.sol",
  "compiler": {
    "name": "solc",
    "version": "0.8.19+commit.7dd6d404.Emscripten.clang"
  },
  "schemaVersion": "3.4.12",
  "updatedAt": "2023-04-22T06:31:22.131Z",
  "networkType": "ethereum",
  "devdoc": {
    "kind": "dev",
    "methods": {},
    "version": 1
  },
  "userdoc": {
    "kind": "user",
    "methods": {},
    "version": 1
  }
}