{
  "contractName": "CrowdFunding",
  "abi": [
    {
      "inputs": [],
      "stateMutability": "nonpayable",
      "type": "constructor"
    },
    {
      "inputs": [
        {
          "internalType": "uint256",
          "name": "",
          "type": "uint256"
        }
      ],
      "name": "campaigns",
      "outputs": [
        {
          "internalType": "address payable",
          "name": "receipientAddress",
          "type": "address"
        },
        {
          "internalType": "string",
          "name": "title",
          "type": "string"
        },
        {
          "internalType": "string",
          "name": "description",
          "type": "string"
        },
        {
          "internalType": "string",
          "name": "imageUrl",
          "type": "string"
        },
        {
          "internalType": "uint256",
          "name": "target",
          "type": "uint256"
        },
        {
          "internalType": "string",
          "name": "deadline",
          "type": "string"
        },
        {
          "internalType": "uint256",
          "name": "received",
          "type": "uint256"
        },
        {
          "internalType": "uint256",
          "name": "id",
          "type": "uint256"
        },
        {
          "internalType": "bool",
          "name": "completed",
          "type": "bool"
        }
      ],
      "stateMutability": "view",
      "type": "function",
      "constant": true
    },
    {
      "inputs": [],
      "name": "donorHistory",
      "outputs": [
        {
          "internalType": "contract DonorHistory",
          "name": "",
          "type": "address"
        }
      ],
      "stateMutability": "view",
      "type": "function",
      "constant": true
    },
    {
      "inputs": [],
      "name": "numberOfCampaigns",
      "outputs": [
        {
          "internalType": "uint256",
          "name": "",
          "type": "uint256"
        }
      ],
      "stateMutability": "view",
      "type": "function",
      "constant": true
    },
    {
      "inputs": [
        {
          "internalType": "string",
          "name": "_title",
          "type": "string"
        },
        {
          "internalType": "string",
          "name": "_description",
          "type": "string"
        },
        {
          "internalType": "string",
          "name": "_imageUrl",
          "type": "string"
        },
        {
          "internalType": "uint256",
          "name": "_target",
          "type": "uint256"
        },
        {
          "internalType": "string",
          "name": "_deadline",
          "type": "string"
        }
      ],
      "name": "addCampaigns",
      "outputs": [],
      "stateMutability": "nonpayable",
      "type": "function"
    },
    {
      "inputs": [],
      "name": "getCampaigns",
      "outputs": [
        {
          "components": [
            {
              "internalType": "address payable",
              "name": "receipientAddress",
              "type": "address"
            },
            {
              "internalType": "string",
              "name": "title",
              "type": "string"
            },
            {
              "internalType": "string",
              "name": "description",
              "type": "string"
            },
            {
              "internalType": "string",
              "name": "imageUrl",
              "type": "string"
            },
            {
              "internalType": "uint256",
              "name": "target",
              "type": "uint256"
            },
            {
              "internalType": "string",
              "name": "deadline",
              "type": "string"
            },
            {
              "internalType": "uint256",
              "name": "received",
              "type": "uint256"
            },
            {
              "internalType": "uint256",
              "name": "id",
              "type": "uint256"
            },
            {
              "internalType": "bool",
              "name": "completed",
              "type": "bool"
            }
          ],
          "internalType": "struct CrowdFunding.Campaign[]",
          "name": "",
          "type": "tuple[]"
        }
      ],
      "stateMutability": "view",
      "type": "function",
      "constant": true
    },
    {
      "inputs": [
        {
          "internalType": "uint256",
          "name": "index",
          "type": "uint256"
        }
      ],
      "name": "getCampaignDetails",
      "outputs": [
        {
          "components": [
            {
              "internalType": "address payable",
              "name": "receipientAddress",
              "type": "address"
            },
            {
              "internalType": "string",
              "name": "title",
              "type": "string"
            },
            {
              "internalType": "string",
              "name": "description",
              "type": "string"
            },
            {
              "internalType": "string",
              "name": "imageUrl",
              "type": "string"
            },
            {
              "internalType": "uint256",
              "name": "target",
              "type": "uint256"
            },
            {
              "internalType": "string",
              "name": "deadline",
              "type": "string"
            },
            {
              "internalType": "uint256",
              "name": "received",
              "type": "uint256"
            },
            {
              "internalType": "uint256",
              "name": "id",
              "type": "uint256"
            },
            {
              "internalType": "bool",
              "name": "completed",
              "type": "bool"
            }
          ],
          "internalType": "struct CrowdFunding.Campaign",
          "name": "",
          "type": "tuple"
        }
      ],
      "stateMutability": "view",
      "type": "function",
      "constant": true
    },
    {
      "inputs": [
        {
          "internalType": "uint256",
          "name": "index",
          "type": "uint256"
        }
      ],
      "name": "donateToCampaign",
      "outputs": [],
      "stateMutability": "payable",
      "type": "function",
      "payable": true
    },
    {
      "inputs": [
        {
          "internalType": "address",
          "name": "_address",
          "type": "address"
        }
      ],
      "name": "getDonorDonationHistory",
      "outputs": [
        {
          "components": [
            {
              "internalType": "uint256",
              "name": "amount",
              "type": "uint256"
            },
            {
              "internalType": "uint256",
              "name": "campaignId",
              "type": "uint256"
            }
          ],
          "internalType": "struct DonorHistory.History[]",
          "name": "",
          "type": "tuple[]"
        }
      ],
      "stateMutability": "view",
      "type": "function",
      "constant": true
    },
    {
      "inputs": [
        {
          "internalType": "uint256",
          "name": "index",
          "type": "uint256"
        },
        {
          "internalType": "string",
          "name": "_title",
          "type": "string"
        },
        {
          "internalType": "string",
          "name": "_description",
          "type": "string"
        },
        {
          "internalType": "string",
          "name": "_imageUrl",
          "type": "string"
        },
        {
          "internalType": "uint256",
          "name": "_target",
          "type": "uint256"
        },
        {
          "internalType": "string",
          "name": "_deadline",
          "type": "string"
        }
      ],
      "name": "updateCampaign",
      "outputs": [],
      "stateMutability": "nonpayable",
      "type": "function"
    }
  ],
  "bytecode": "0x6080604052600060025534801561001557600080fd5b5060405161002290610084565b604051809103906000f08015801561003e573d6000803e3d6000fd5b50600160006101000a81548173ffffffffffffffffffffffffffffffffffffffff021916908373ffffffffffffffffffffffffffffffffffffffff160217905550610092565b61054f806200233c83390190565b61229a80620000a26000396000f3fe6080604052600436106100865760003560e01c806342a4fda81161005957806342a4fda81461014f578063460948f41461016b578063a6b0363314610194578063cb70d640146101bf578063d993de62146101fc57610086565b806307ca140d1461008b578063141961bc146100b65780632286abdc146100fb5780632ee97fdb14610126575b600080fd5b34801561009757600080fd5b506100a0610239565b6040516100ad9190611146565b60405180910390f35b3480156100c257600080fd5b506100dd60048036038101906100d891906111a1565b61023f565b6040516100f2999897969594939291906112ba565b60405180910390f35b34801561010757600080fd5b506101106104ea565b60405161011d91906113c2565b60405180910390f35b34801561013257600080fd5b5061014d60048036038101906101489190611512565b610510565b005b610169600480360381019061016491906111a1565b610603565b005b34801561017757600080fd5b50610192600480360381019061018d919061160f565b610806565b005b3480156101a057600080fd5b506101a96109cf565b6040516101b6919061190d565b60405180910390f35b3480156101cb57600080fd5b506101e660048036038101906101e1919061196d565b610d06565b6040516101f39190611a78565b60405180910390f35b34801561020857600080fd5b50610223600480360381019061021e91906111a1565b610db0565b6040516102309190611b74565b60405180910390f35b60025481565b6000818154811061024f57600080fd5b90600052602060002090600902016000915090508060000160009054906101000a900473ffffffffffffffffffffffffffffffffffffffff169080600101805461029890611bc5565b80601f01602080910402602001604051908101604052809291908181526020018280546102c490611bc5565b80156103115780601f106102e657610100808354040283529160200191610311565b820191906000526020600020905b8154815290600101906020018083116102f457829003601f168201915b50505050509080600201805461032690611bc5565b80601f016020809104026020016040519081016040528092919081815260200182805461035290611bc5565b801561039f5780601f106103745761010080835404028352916020019161039f565b820191906000526020600020905b81548152906001019060200180831161038257829003601f168201915b5050505050908060030180546103b490611bc5565b80601f01602080910402602001604051908101604052809291908181526020018280546103e090611bc5565b801561042d5780601f106104025761010080835404028352916020019161042d565b820191906000526020600020905b81548152906001019060200180831161041057829003601f168201915b50505050509080600401549080600501805461044890611bc5565b80601f016020809104026020016040519081016040528092919081815260200182805461047490611bc5565b80156104c15780601f10610496576101008083540402835291602001916104c1565b820191906000526020600020905b8154815290600101906020018083116104a457829003601f168201915b5050505050908060060154908060070154908060080160009054906101000a900460ff16905089565b600160009054906101000a900473ffffffffffffffffffffffffffffffffffffffff1681565b6000805490508610610557576040517f08c379a000000000000000000000000000000000000000000000000000000000815260040161054e90611c42565b60405180910390fd5b600080878154811061056c5761056b611c62565b5b906000526020600020906009020190508581600101908161058d9190611e33565b508481600201908161059f9190611e33565b50838160030190816105b19190611e33565b50818160050190816105c39190611e33565b5082816004018190555080600401548160060154106105fa5760018160080160006101000a81548160ff0219169083151502179055505b50505050505050565b600080549050811061064a576040517f08c379a000000000000000000000000000000000000000000000000000000000815260040161064190611c42565b60405180910390fd5b600080828154811061065f5761065e611c62565b5b906000526020600020906009020190508060080160009054906101000a900460ff16156106c1576040517f08c379a00000000000000000000000000000000000000000000000000000000081526004016106b890611f51565b60405180910390fd5b8060000160009054906101000a900473ffffffffffffffffffffffffffffffffffffffff1673ffffffffffffffffffffffffffffffffffffffff166108fc349081150290604051600060405180830381858888f1935050505015801561072b573d6000803e3d6000fd5b5034816006015461073c9190611fa0565b8160060181905550600160009054906101000a900473ffffffffffffffffffffffffffffffffffffffff1673ffffffffffffffffffffffffffffffffffffffff16632d12af6a3484336040518463ffffffff1660e01b81526004016107a393929190611fe3565b600060405180830381600087803b1580156107bd57600080fd5b505af11580156107d1573d6000803e3d6000fd5b5050505080600401548160060154106108025760018160080160006101000a81548160ff0219169083151502179055505b5050565b60008211610849576040517f08c379a000000000000000000000000000000000000000000000000000000000815260040161084090612066565b60405180910390fd5b60006040518061012001604052803373ffffffffffffffffffffffffffffffffffffffff16815260200187815260200186815260200185815260200184815260200183815260200160008152602001600254815260200160001515815250908060018154018082558091505060019003906000526020600020906009020160009091909190915060008201518160000160006101000a81548173ffffffffffffffffffffffffffffffffffffffff021916908373ffffffffffffffffffffffffffffffffffffffff160217905550602082015181600101908161092c9190611e33565b5060408201518160020190816109429190611e33565b5060608201518160030190816109589190611e33565b506080820151816004015560a08201518160050190816109789190611e33565b5060c0820151816006015560e082015181600701556101008201518160080160006101000a81548160ff0219169083151502179055505050600260008154809291906109c390612086565b91905055505050505050565b60606000805480602002602001604051908101604052809291908181526020016000905b82821015610cfd5783829060005260206000209060090201604051806101200160405290816000820160009054906101000a900473ffffffffffffffffffffffffffffffffffffffff1673ffffffffffffffffffffffffffffffffffffffff1673ffffffffffffffffffffffffffffffffffffffff168152602001600182018054610a7d90611bc5565b80601f0160208091040260200160405190810160405280929190818152602001828054610aa990611bc5565b8015610af65780601f10610acb57610100808354040283529160200191610af6565b820191906000526020600020905b815481529060010190602001808311610ad957829003601f168201915b50505050508152602001600282018054610b0f90611bc5565b80601f0160208091040260200160405190810160405280929190818152602001828054610b3b90611bc5565b8015610b885780601f10610b5d57610100808354040283529160200191610b88565b820191906000526020600020905b815481529060010190602001808311610b6b57829003601f168201915b50505050508152602001600382018054610ba190611bc5565b80601f0160208091040260200160405190810160405280929190818152602001828054610bcd90611bc5565b8015610c1a5780601f10610bef57610100808354040283529160200191610c1a565b820191906000526020600020905b815481529060010190602001808311610bfd57829003601f168201915b5050505050815260200160048201548152602001600582018054610c3d90611bc5565b80601f0160208091040260200160405190810160405280929190818152602001828054610c6990611bc5565b8015610cb65780601f10610c8b57610100808354040283529160200191610cb6565b820191906000526020600020905b815481529060010190602001808311610c9957829003601f168201915b5050505050815260200160068201548152602001600782015481526020016008820160009054906101000a900460ff161515151581525050815260200190600101906109f3565b50505050905090565b6060600160009054906101000a900473ffffffffffffffffffffffffffffffffffffffff1673ffffffffffffffffffffffffffffffffffffffff16633e4cbf42836040518263ffffffff1660e01b8152600401610d6391906120ce565b600060405180830381865afa158015610d80573d6000803e3d6000fd5b505050506040513d6000823e3d601f19601f82011682018060405250810190610da9919061221b565b9050919050565b610db86110c9565b6000808381548110610dcd57610dcc611c62565b5b9060005260206000209060090201604051806101200160405290816000820160009054906101000a900473ffffffffffffffffffffffffffffffffffffffff1673ffffffffffffffffffffffffffffffffffffffff1673ffffffffffffffffffffffffffffffffffffffff168152602001600182018054610e4d90611bc5565b80601f0160208091040260200160405190810160405280929190818152602001828054610e7990611bc5565b8015610ec65780601f10610e9b57610100808354040283529160200191610ec6565b820191906000526020600020905b815481529060010190602001808311610ea957829003601f168201915b50505050508152602001600282018054610edf90611bc5565b80601f0160208091040260200160405190810160405280929190818152602001828054610f0b90611bc5565b8015610f585780601f10610f2d57610100808354040283529160200191610f58565b820191906000526020600020905b815481529060010190602001808311610f3b57829003601f168201915b50505050508152602001600382018054610f7190611bc5565b80601f0160208091040260200160405190810160405280929190818152602001828054610f9d90611bc5565b8015610fea5780601f10610fbf57610100808354040283529160200191610fea565b820191906000526020600020905b815481529060010190602001808311610fcd57829003601f168201915b505050505081526020016004820154815260200160058201805461100d90611bc5565b80601f016020809104026020016040519081016040528092919081815260200182805461103990611bc5565b80156110865780601f1061105b57610100808354040283529160200191611086565b820191906000526020600020905b81548152906001019060200180831161106957829003601f168201915b5050505050815260200160068201548152602001600782015481526020016008820160009054906101000a900460ff161515151581525050905080915050919050565b604051806101200160405280600073ffffffffffffffffffffffffffffffffffffffff168152602001606081526020016060815260200160608152602001600081526020016060815260200160008152602001600081526020016000151581525090565b6000819050919050565b6111408161112d565b82525050565b600060208201905061115b6000830184611137565b92915050565b6000604051905090565b600080fd5b600080fd5b61117e8161112d565b811461118957600080fd5b50565b60008135905061119b81611175565b92915050565b6000602082840312156111b7576111b661116b565b5b60006111c58482850161118c565b91505092915050565b600073ffffffffffffffffffffffffffffffffffffffff82169050919050565b60006111f9826111ce565b9050919050565b611209816111ee565b82525050565b600081519050919050565b600082825260208201905092915050565b60005b8381101561124957808201518184015260208101905061122e565b60008484015250505050565b6000601f19601f8301169050919050565b60006112718261120f565b61127b818561121a565b935061128b81856020860161122b565b61129481611255565b840191505092915050565b60008115159050919050565b6112b48161129f565b82525050565b6000610120820190506112d0600083018c611200565b81810360208301526112e2818b611266565b905081810360408301526112f6818a611266565b9050818103606083015261130a8189611266565b90506113196080830188611137565b81810360a083015261132b8187611266565b905061133a60c0830186611137565b61134760e0830185611137565b6113556101008301846112ab565b9a9950505050505050505050565b6000819050919050565b600061138861138361137e846111ce565b611363565b6111ce565b9050919050565b600061139a8261136d565b9050919050565b60006113ac8261138f565b9050919050565b6113bc816113a1565b82525050565b60006020820190506113d760008301846113b3565b92915050565b600080fd5b600080fd5b7f4e487b7100000000000000000000000000000000000000000000000000000000600052604160045260246000fd5b61141f82611255565b810181811067ffffffffffffffff8211171561143e5761143d6113e7565b5b80604052505050565b6000611451611161565b905061145d8282611416565b919050565b600067ffffffffffffffff82111561147d5761147c6113e7565b5b61148682611255565b9050602081019050919050565b82818337600083830152505050565b60006114b56114b084611462565b611447565b9050828152602081018484840111156114d1576114d06113e2565b5b6114dc848285611493565b509392505050565b600082601f8301126114f9576114f86113dd565b5b81356115098482602086016114a2565b91505092915050565b60008060008060008060c0878903121561152f5761152e61116b565b5b600061153d89828a0161118c565b965050602087013567ffffffffffffffff81111561155e5761155d611170565b5b61156a89828a016114e4565b955050604087013567ffffffffffffffff81111561158b5761158a611170565b5b61159789828a016114e4565b945050606087013567ffffffffffffffff8111156115b8576115b7611170565b5b6115c489828a016114e4565b93505060806115d589828a0161118c565b92505060a087013567ffffffffffffffff8111156115f6576115f5611170565b5b61160289828a016114e4565b9150509295509295509295565b600080600080600060a0868803121561162b5761162a61116b565b5b600086013567ffffffffffffffff81111561164957611648611170565b5b611655888289016114e4565b955050602086013567ffffffffffffffff81111561167657611675611170565b5b611682888289016114e4565b945050604086013567ffffffffffffffff8111156116a3576116a2611170565b5b6116af888289016114e4565b93505060606116c08882890161118c565b925050608086013567ffffffffffffffff8111156116e1576116e0611170565b5b6116ed888289016114e4565b9150509295509295909350565b600081519050919050565b600082825260208201905092915050565b6000819050602082019050919050565b61172f816111ee565b82525050565b600082825260208201905092915050565b60006117518261120f565b61175b8185611735565b935061176b81856020860161122b565b61177481611255565b840191505092915050565b6117888161112d565b82525050565b6117978161129f565b82525050565b6000610120830160008301516117b66000860182611726565b50602083015184820360208601526117ce8282611746565b915050604083015184820360408601526117e88282611746565b915050606083015184820360608601526118028282611746565b9150506080830151611817608086018261177f565b5060a083015184820360a086015261182f8282611746565b91505060c083015161184460c086018261177f565b5060e083015161185760e086018261177f565b5061010083015161186c61010086018261178e565b508091505092915050565b6000611883838361179d565b905092915050565b6000602082019050919050565b60006118a3826116fa565b6118ad8185611705565b9350836020820285016118bf85611716565b8060005b858110156118fb57848403895281516118dc8582611877565b94506118e78361188b565b925060208a019950506001810190506118c3565b50829750879550505050505092915050565b600060208201905081810360008301526119278184611898565b905092915050565b600061193a826111ce565b9050919050565b61194a8161192f565b811461195557600080fd5b50565b60008135905061196781611941565b92915050565b6000602082840312156119835761198261116b565b5b600061199184828501611958565b91505092915050565b600081519050919050565b600082825260208201905092915050565b6000819050602082019050919050565b6040820160008201516119dc600085018261177f565b5060208201516119ef602085018261177f565b50505050565b6000611a0183836119c6565b60408301905092915050565b6000602082019050919050565b6000611a258261199a565b611a2f81856119a5565b9350611a3a836119b6565b8060005b83811015611a6b578151611a5288826119f5565b9750611a5d83611a0d565b925050600181019050611a3e565b5085935050505092915050565b60006020820190508181036000830152611a928184611a1a565b905092915050565b600061012083016000830151611ab36000860182611726565b5060208301518482036020860152611acb8282611746565b91505060408301518482036040860152611ae58282611746565b91505060608301518482036060860152611aff8282611746565b9150506080830151611b14608086018261177f565b5060a083015184820360a0860152611b2c8282611746565b91505060c0830151611b4160c086018261177f565b5060e0830151611b5460e086018261177f565b50610100830151611b6961010086018261178e565b508091505092915050565b60006020820190508181036000830152611b8e8184611a9a565b905092915050565b7f4e487b7100000000000000000000000000000000000000000000000000000000600052602260045260246000fd5b60006002820490506001821680611bdd57607f821691505b602082108103611bf057611bef611b96565b5b50919050565b7f496e76616c69642063616d706169676e20696e64657800000000000000000000600082015250565b6000611c2c60168361121a565b9150611c3782611bf6565b602082019050919050565b60006020820190508181036000830152611c5b81611c1f565b9050919050565b7f4e487b7100000000000000000000000000000000000000000000000000000000600052603260045260246000fd5b60008190508160005260206000209050919050565b60006020601f8301049050919050565b600082821b905092915050565b600060088302611cf37fffffffffffffffffffffffffffffffffffffffffffffffffffffffffffffffff82611cb6565b611cfd8683611cb6565b95508019841693508086168417925050509392505050565b6000611d30611d2b611d268461112d565b611363565b61112d565b9050919050565b6000819050919050565b611d4a83611d15565b611d5e611d5682611d37565b848454611cc3565b825550505050565b600090565b611d73611d66565b611d7e818484611d41565b505050565b5b81811015611da257611d97600082611d6b565b600181019050611d84565b5050565b601f821115611de757611db881611c91565b611dc184611ca6565b81016020851015611dd0578190505b611de4611ddc85611ca6565b830182611d83565b50505b505050565b600082821c905092915050565b6000611e0a60001984600802611dec565b1980831691505092915050565b6000611e238383611df9565b9150826002028217905092915050565b611e3c8261120f565b67ffffffffffffffff811115611e5557611e546113e7565b5b611e5f8254611bc5565b611e6a828285611da6565b600060209050601f831160018114611e9d5760008415611e8b578287015190505b611e958582611e17565b865550611efd565b601f198416611eab86611c91565b60005b82811015611ed357848901518255600182019150602085019450602081019050611eae565b86831015611ef05784890151611eec601f891682611df9565b8355505b6001600288020188555050505b505050505050565b7f43616d706169676e20636f6d706c657465640000000000000000000000000000600082015250565b6000611f3b60128361121a565b9150611f4682611f05565b602082019050919050565b60006020820190508181036000830152611f6a81611f2e565b9050919050565b7f4e487b7100000000000000000000000000000000000000000000000000000000600052601160045260246000fd5b6000611fab8261112d565b9150611fb68361112d565b9250828201905080821115611fce57611fcd611f71565b5b92915050565b611fdd8161192f565b82525050565b6000606082019050611ff86000830186611137565b6120056020830185611137565b6120126040830184611fd4565b949350505050565b7f54617267657420616d6f756e74206d757374206e6f74206265207a65726f0000600082015250565b6000612050601e8361121a565b915061205b8261201a565b602082019050919050565b6000602082019050818103600083015261207f81612043565b9050919050565b60006120918261112d565b91507fffffffffffffffffffffffffffffffffffffffffffffffffffffffffffffffff82036120c3576120c2611f71565b5b600182019050919050565b60006020820190506120e36000830184611fd4565b92915050565b600067ffffffffffffffff821115612104576121036113e7565b5b602082029050602081019050919050565b600080fd5b600080fd5b60008151905061212e81611175565b92915050565b60006040828403121561214a5761214961211a565b5b6121546040611447565b905060006121648482850161211f565b60008301525060206121788482850161211f565b60208301525092915050565b6000612197612192846120e9565b611447565b905080838252602082019050604084028301858111156121ba576121b9612115565b5b835b818110156121e357806121cf8882612134565b8452602084019350506040810190506121bc565b5050509392505050565b600082601f830112612202576122016113dd565b5b8151612212848260208601612184565b91505092915050565b6000602082840312156122315761223061116b565b5b600082015167ffffffffffffffff81111561224f5761224e611170565b5b61225b848285016121ed565b9150509291505056fea264697066735822122057cabffd234b48645b113e7b76881695c773e492876626836404e783fa24508564736f6c63430008130033608060405234801561001057600080fd5b5061052f806100206000396000f3fe6080604052600436106100345760003560e01c80632d12af6a146100395780633e4cbf42146100555780637969f3b814610092575b600080fd5b610053600480360381019061004e91906102f2565b6100d0565b005b34801561006157600080fd5b5061007c60048036038101906100779190610345565b610167565b604051610089919061045f565b60405180910390f35b34801561009e57600080fd5b506100b960048036038101906100b49190610481565b610218565b6040516100c79291906104d0565b60405180910390f35b6000808273ffffffffffffffffffffffffffffffffffffffff1673ffffffffffffffffffffffffffffffffffffffff168152602001908152602001600020604051806040016040528085815260200184815250908060018154018082558091505060019003906000526020600020906002020160009091909190915060008201518160000155602082015181600101555050505050565b60606000808373ffffffffffffffffffffffffffffffffffffffff1673ffffffffffffffffffffffffffffffffffffffff168152602001908152602001600020805480602002602001604051908101604052809291908181526020016000905b8282101561020d578382906000526020600020906002020160405180604001604052908160008201548152602001600182015481525050815260200190600101906101c7565b505050509050919050565b6000602052816000526040600020818154811061023457600080fd5b9060005260206000209060020201600091509150508060000154908060010154905082565b600080fd5b6000819050919050565b6102718161025e565b811461027c57600080fd5b50565b60008135905061028e81610268565b92915050565b600073ffffffffffffffffffffffffffffffffffffffff82169050919050565b60006102bf82610294565b9050919050565b6102cf816102b4565b81146102da57600080fd5b50565b6000813590506102ec816102c6565b92915050565b60008060006060848603121561030b5761030a610259565b5b60006103198682870161027f565b935050602061032a8682870161027f565b925050604061033b868287016102dd565b9150509250925092565b60006020828403121561035b5761035a610259565b5b6000610369848285016102dd565b91505092915050565b600081519050919050565b600082825260208201905092915050565b6000819050602082019050919050565b6103a78161025e565b82525050565b6040820160008201516103c3600085018261039e565b5060208201516103d6602085018261039e565b50505050565b60006103e883836103ad565b60408301905092915050565b6000602082019050919050565b600061040c82610372565b610416818561037d565b93506104218361038e565b8060005b8381101561045257815161043988826103dc565b9750610444836103f4565b925050600181019050610425565b5085935050505092915050565b600060208201905081810360008301526104798184610401565b905092915050565b6000806040838503121561049857610497610259565b5b60006104a6858286016102dd565b92505060206104b78582860161027f565b9150509250929050565b6104ca8161025e565b82525050565b60006040820190506104e560008301856104c1565b6104f260208301846104c1565b939250505056fea2646970667358221220a689bc4c4ecc0045479d96243b3513a813ce153290ed732c2204c377cfc32c8964736f6c63430008130033",
  "immutableReferences": {},
  "source": "// SPDX-License-Identifier: UNLICENSED\npragma solidity ^0.8.9;\n\ncontract DonorHistory{\n    struct History{\n        uint amount;\n        uint campaignId;\n    }\n    mapping(address=>History[]) public donorHistory;\n    function addToHistory(uint _amount,uint _campaignId, address _donor) public payable {\n        donorHistory[_donor].push(History({\n            amount:_amount,\n            campaignId:_campaignId\n        }));\n    }\n    function getDonorHistory(address _donor) public view returns(History[] memory){\n        return donorHistory[_donor];\n    }\n}\n\ncontract CrowdFunding{\n    struct Campaign{\n        address payable receipientAddress;\n        string title;\n        string description;\n        string imageUrl;\n        uint target;\n        string deadline;\n        uint received;\n        uint id;\n        bool completed;\n    }\n    Campaign[] public campaigns;\n    DonorHistory public donorHistory;\n    uint public numberOfCampaigns = 0;\n    constructor(){\n        donorHistory = new DonorHistory();\n    }\n    function addCampaigns(string memory _title, string memory _description, string memory _imageUrl, uint _target, string memory _deadline ) public {\n        require(_target > 0,\"Target amount must not be zero\");\n        campaigns.push(Campaign({\n            receipientAddress:payable(msg.sender),\n            title:_title,\n            description:_description,\n            imageUrl:_imageUrl,\n            target:_target,\n            deadline:_deadline,\n            received:0,\n            id:numberOfCampaigns,\n            completed:false\n        }));\n        numberOfCampaigns++;\n    }\n    function getCampaigns() public view returns(Campaign[] memory){\n        return campaigns;\n    } \n    function getCampaignDetails(uint index) public view returns(Campaign memory){\n        Campaign memory campaign = campaigns[index];\n        return campaign;\n    }\n    function donateToCampaign(uint index) public payable {\n        require(index < campaigns.length, \"Invalid campaign index\");\n        Campaign storage campaign = campaigns[index];\n        require(!campaign.completed,\"Campaign completed\");\n        campaign.receipientAddress.transfer(msg.value);\n        campaign.received = campaign.received + msg.value; \n        donorHistory.addToHistory(msg.value,index,msg.sender);\n        if(campaign.received>=campaign.target){\n            campaign.completed = true;\n        }\n    }\n      function getDonorDonationHistory(address _address) public view returns (DonorHistory.History[] memory) {\n        return donorHistory.getDonorHistory(_address);\n    }\n\n     function updateCampaign(uint index,string memory _title, string memory _description, string memory _imageUrl, uint _target, string memory _deadline) public {\n        require(index<campaigns.length,\"Invalid campaign index\");\n        Campaign storage campaign = campaigns[index];\n        campaign.title = _title;\n        campaign.description = _description;\n        campaign.imageUrl = _imageUrl;\n        campaign.deadline = _deadline;\n        campaign.target = _target;\n        if(campaign.received>=campaign.target){\n            campaign.completed = true;\n        }\n    } \n}",
  "sourcePath": "/Users/uday/Desktop/Blockchain/project/contracts/CrowdFunding.sol",
  "compiler": {
    "name": "solc",
    "version": "0.8.19+commit.7dd6d404.Emscripten.clang"
  },
  "schemaVersion": "3.4.12",
  "updatedAt": "2023-04-10T07:41:09.994Z",
  "networkType": "ethereum",
  "devdoc": {
    "kind": "dev",
    "methods": {},
    "version": 1
  },
  "userdoc": {
    "kind": "user",
    "methods": {},
    "version": 1
  }
}