{
  "contractName": "CrowdFunding",
  "abi": [
    {
      "inputs": [],
      "stateMutability": "nonpayable",
      "type": "constructor"
    },
    {
      "inputs": [
        {
          "internalType": "uint256",
          "name": "",
          "type": "uint256"
        }
      ],
      "name": "campaigns",
      "outputs": [
        {
          "internalType": "address payable",
          "name": "receipientAddress",
          "type": "address"
        },
        {
          "internalType": "string",
          "name": "title",
          "type": "string"
        },
        {
          "internalType": "string",
          "name": "description",
          "type": "string"
        },
        {
          "internalType": "string",
          "name": "imageUrl",
          "type": "string"
        },
        {
          "internalType": "uint256",
          "name": "target",
          "type": "uint256"
        },
        {
          "internalType": "string",
          "name": "deadline",
          "type": "string"
        },
        {
          "internalType": "uint256",
          "name": "received",
          "type": "uint256"
        },
        {
          "internalType": "uint256",
          "name": "id",
          "type": "uint256"
        },
        {
          "internalType": "bool",
          "name": "completed",
          "type": "bool"
        }
      ],
      "stateMutability": "view",
      "type": "function",
      "constant": true
    },
    {
      "inputs": [],
      "name": "donorHistory",
      "outputs": [
        {
          "internalType": "contract DonorHistory",
          "name": "",
          "type": "address"
        }
      ],
      "stateMutability": "view",
      "type": "function",
      "constant": true
    },
    {
      "inputs": [],
      "name": "numberOfCampaigns",
      "outputs": [
        {
          "internalType": "uint256",
          "name": "",
          "type": "uint256"
        }
      ],
      "stateMutability": "view",
      "type": "function",
      "constant": true
    },
    {
      "inputs": [
        {
          "internalType": "string",
          "name": "_title",
          "type": "string"
        },
        {
          "internalType": "string",
          "name": "_description",
          "type": "string"
        },
        {
          "internalType": "string",
          "name": "_imageUrl",
          "type": "string"
        },
        {
          "internalType": "uint256",
          "name": "_target",
          "type": "uint256"
        },
        {
          "internalType": "string",
          "name": "_deadline",
          "type": "string"
        }
      ],
      "name": "addCampaigns",
      "outputs": [],
      "stateMutability": "nonpayable",
      "type": "function"
    },
    {
      "inputs": [
        {
          "internalType": "address",
          "name": "_address",
          "type": "address"
        }
      ],
      "name": "getDonorDonationHistory",
      "outputs": [
        {
          "components": [
            {
              "internalType": "uint256",
              "name": "amount",
              "type": "uint256"
            },
            {
              "internalType": "uint256",
              "name": "campaignId",
              "type": "uint256"
            }
          ],
          "internalType": "struct DonorHistory.History[]",
          "name": "",
          "type": "tuple[]"
        }
      ],
      "stateMutability": "view",
      "type": "function",
      "constant": true
    },
    {
      "inputs": [],
      "name": "getCampaigns",
      "outputs": [
        {
          "components": [
            {
              "internalType": "address payable",
              "name": "receipientAddress",
              "type": "address"
            },
            {
              "internalType": "string",
              "name": "title",
              "type": "string"
            },
            {
              "internalType": "string",
              "name": "description",
              "type": "string"
            },
            {
              "internalType": "string",
              "name": "imageUrl",
              "type": "string"
            },
            {
              "internalType": "uint256",
              "name": "target",
              "type": "uint256"
            },
            {
              "internalType": "string",
              "name": "deadline",
              "type": "string"
            },
            {
              "internalType": "uint256",
              "name": "received",
              "type": "uint256"
            },
            {
              "internalType": "uint256",
              "name": "id",
              "type": "uint256"
            },
            {
              "internalType": "address[]",
              "name": "donators",
              "type": "address[]"
            },
            {
              "internalType": "bool",
              "name": "completed",
              "type": "bool"
            }
          ],
          "internalType": "struct CrowdFunding.Campaign[]",
          "name": "",
          "type": "tuple[]"
        }
      ],
      "stateMutability": "view",
      "type": "function",
      "constant": true
    },
    {
      "inputs": [
        {
          "internalType": "uint256",
          "name": "index",
          "type": "uint256"
        }
      ],
      "name": "getCampaignDetails",
      "outputs": [
        {
          "components": [
            {
              "internalType": "address payable",
              "name": "receipientAddress",
              "type": "address"
            },
            {
              "internalType": "string",
              "name": "title",
              "type": "string"
            },
            {
              "internalType": "string",
              "name": "description",
              "type": "string"
            },
            {
              "internalType": "string",
              "name": "imageUrl",
              "type": "string"
            },
            {
              "internalType": "uint256",
              "name": "target",
              "type": "uint256"
            },
            {
              "internalType": "string",
              "name": "deadline",
              "type": "string"
            },
            {
              "internalType": "uint256",
              "name": "received",
              "type": "uint256"
            },
            {
              "internalType": "uint256",
              "name": "id",
              "type": "uint256"
            },
            {
              "internalType": "address[]",
              "name": "donators",
              "type": "address[]"
            },
            {
              "internalType": "bool",
              "name": "completed",
              "type": "bool"
            }
          ],
          "internalType": "struct CrowdFunding.Campaign",
          "name": "",
          "type": "tuple"
        }
      ],
      "stateMutability": "view",
      "type": "function",
      "constant": true
    },
    {
      "inputs": [
        {
          "internalType": "uint256",
          "name": "index",
          "type": "uint256"
        }
      ],
      "name": "donateToCampaign",
      "outputs": [],
      "stateMutability": "payable",
      "type": "function",
      "payable": true
    },
    {
      "inputs": [
        {
          "internalType": "uint256",
          "name": "index",
          "type": "uint256"
        },
        {
          "internalType": "string",
          "name": "_title",
          "type": "string"
        },
        {
          "internalType": "string",
          "name": "_description",
          "type": "string"
        },
        {
          "internalType": "string",
          "name": "_imageUrl",
          "type": "string"
        },
        {
          "internalType": "uint256",
          "name": "_target",
          "type": "uint256"
        },
        {
          "internalType": "string",
          "name": "_deadline",
          "type": "string"
        }
      ],
      "name": "updateCampaign",
      "outputs": [],
      "stateMutability": "nonpayable",
      "type": "function"
    }
  ],
  "bytecode": "0x608060405260006002553480156200001657600080fd5b50604051620000259062000089565b604051809103906000f08015801562000042573d6000803e3d6000fd5b50600160006101000a81548173ffffffffffffffffffffffffffffffffffffffff021916908373ffffffffffffffffffffffffffffffffffffffff16021790555062000097565b61054f80620026d383390190565b61262c80620000a76000396000f3fe6080604052600436106100865760003560e01c806342a4fda81161005957806342a4fda81461014f578063460948f41461016b578063a6b0363314610194578063cb70d640146101bf578063d993de62146101fc57610086565b806307ca140d1461008b578063141961bc146100b65780632286abdc146100fb5780632ee97fdb14610126575b600080fd5b34801561009757600080fd5b506100a0610239565b6040516100ad91906113e2565b60405180910390f35b3480156100c257600080fd5b506100dd60048036038101906100d8919061143d565b61023f565b6040516100f299989796959493929190611556565b60405180910390f35b34801561010757600080fd5b506101106104ea565b60405161011d919061165e565b60405180910390f35b34801561013257600080fd5b5061014d600480360381019061014891906117ae565b610510565b005b6101696004803603810190610164919061143d565b610603565b005b34801561017757600080fd5b50610192600480360381019061018d91906118ab565b61086b565b005b3480156101a057600080fd5b506101a9610aa1565b6040516101b69190611c95565b60405180910390f35b3480156101cb57600080fd5b506101e660048036038101906101e19190611ce3565b610e66565b6040516101f39190611dee565b60405180910390f35b34801561020857600080fd5b50610223600480360381019061021e919061143d565b610f10565b6040516102309190611f06565b60405180910390f35b60025481565b6000818154811061024f57600080fd5b90600052602060002090600a02016000915090508060000160009054906101000a900473ffffffffffffffffffffffffffffffffffffffff169080600101805461029890611f57565b80601f01602080910402602001604051908101604052809291908181526020018280546102c490611f57565b80156103115780601f106102e657610100808354040283529160200191610311565b820191906000526020600020905b8154815290600101906020018083116102f457829003601f168201915b50505050509080600201805461032690611f57565b80601f016020809104026020016040519081016040528092919081815260200182805461035290611f57565b801561039f5780601f106103745761010080835404028352916020019161039f565b820191906000526020600020905b81548152906001019060200180831161038257829003601f168201915b5050505050908060030180546103b490611f57565b80601f01602080910402602001604051908101604052809291908181526020018280546103e090611f57565b801561042d5780601f106104025761010080835404028352916020019161042d565b820191906000526020600020905b81548152906001019060200180831161041057829003601f168201915b50505050509080600401549080600501805461044890611f57565b80601f016020809104026020016040519081016040528092919081815260200182805461047490611f57565b80156104c15780601f10610496576101008083540402835291602001916104c1565b820191906000526020600020905b8154815290600101906020018083116104a457829003601f168201915b5050505050908060060154908060070154908060090160009054906101000a900460ff16905089565b600160009054906101000a900473ffffffffffffffffffffffffffffffffffffffff1681565b6000805490508610610557576040517f08c379a000000000000000000000000000000000000000000000000000000000815260040161054e90611fd4565b60405180910390fd5b600080878154811061056c5761056b611ff4565b5b90600052602060002090600a020190508581600101908161058d91906121c5565b508481600201908161059f91906121c5565b50838160030190816105b191906121c5565b50818160050190816105c391906121c5565b5082816004018190555080600401548160060154106105fa5760018160090160006101000a81548160ff0219169083151502179055505b50505050505050565b600080549050811061064a576040517f08c379a000000000000000000000000000000000000000000000000000000000815260040161064190611fd4565b60405180910390fd5b600080828154811061065f5761065e611ff4565b5b90600052602060002090600a020190508060090160009054906101000a900460ff16156106c1576040517f08c379a00000000000000000000000000000000000000000000000000000000081526004016106b8906122e3565b60405180910390fd5b8060000160009054906101000a900473ffffffffffffffffffffffffffffffffffffffff1673ffffffffffffffffffffffffffffffffffffffff166108fc349081150290604051600060405180830381858888f1935050505015801561072b573d6000803e3d6000fd5b5034816006015461073c9190612332565b816006018190555080600801339080600181540180825580915050600190039060005260206000200160009091909190916101000a81548173ffffffffffffffffffffffffffffffffffffffff021916908373ffffffffffffffffffffffffffffffffffffffff160217905550600160009054906101000a900473ffffffffffffffffffffffffffffffffffffffff1673ffffffffffffffffffffffffffffffffffffffff16632d12af6a3484336040518463ffffffff1660e01b815260040161080893929190612375565b600060405180830381600087803b15801561082257600080fd5b505af1158015610836573d6000803e3d6000fd5b5050505080600401548160060154106108675760018160090160006101000a81548160ff0219169083151502179055505b5050565b600082116108ae576040517f08c379a00000000000000000000000000000000000000000000000000000000081526004016108a5906123f8565b60405180910390fd5b60006040518061014001604052803373ffffffffffffffffffffffffffffffffffffffff168152602001878152602001868152602001858152602001848152602001838152602001600081526020016002548152602001600067ffffffffffffffff8111156109205761091f611683565b5b60405190808252806020026020018201604052801561094e5781602001602082028036833780820191505090505b5081526020016000151581525090806001815401808255809150506001900390600052602060002090600a020160009091909190915060008201518160000160006101000a81548173ffffffffffffffffffffffffffffffffffffffff021916908373ffffffffffffffffffffffffffffffffffffffff16021790555060208201518160010190816109e091906121c5565b5060408201518160020190816109f691906121c5565b506060820151816003019081610a0c91906121c5565b506080820151816004015560a0820151816005019081610a2c91906121c5565b5060c0820151816006015560e08201518160070155610100820151816008019080519060200190610a5e9291906112b7565b506101208201518160090160006101000a81548160ff021916908315150217905550505060026000815480929190610a9590612418565b91905055505050505050565b60606000805480602002602001604051908101604052809291908181526020016000905b82821015610e5d57838290600052602060002090600a0201604051806101400160405290816000820160009054906101000a900473ffffffffffffffffffffffffffffffffffffffff1673ffffffffffffffffffffffffffffffffffffffff1673ffffffffffffffffffffffffffffffffffffffff168152602001600182018054610b4f90611f57565b80601f0160208091040260200160405190810160405280929190818152602001828054610b7b90611f57565b8015610bc85780601f10610b9d57610100808354040283529160200191610bc8565b820191906000526020600020905b815481529060010190602001808311610bab57829003601f168201915b50505050508152602001600282018054610be190611f57565b80601f0160208091040260200160405190810160405280929190818152602001828054610c0d90611f57565b8015610c5a5780601f10610c2f57610100808354040283529160200191610c5a565b820191906000526020600020905b815481529060010190602001808311610c3d57829003601f168201915b50505050508152602001600382018054610c7390611f57565b80601f0160208091040260200160405190810160405280929190818152602001828054610c9f90611f57565b8015610cec5780601f10610cc157610100808354040283529160200191610cec565b820191906000526020600020905b815481529060010190602001808311610ccf57829003601f168201915b5050505050815260200160048201548152602001600582018054610d0f90611f57565b80601f0160208091040260200160405190810160405280929190818152602001828054610d3b90611f57565b8015610d885780601f10610d5d57610100808354040283529160200191610d88565b820191906000526020600020905b815481529060010190602001808311610d6b57829003601f168201915b50505050508152602001600682015481526020016007820154815260200160088201805480602002602001604051908101604052809291908181526020018280548015610e2a57602002820191906000526020600020905b8160009054906101000a900473ffffffffffffffffffffffffffffffffffffffff1673ffffffffffffffffffffffffffffffffffffffff1681526020019060010190808311610de0575b505050505081526020016009820160009054906101000a900460ff16151515158152505081526020019060010190610ac5565b50505050905090565b6060600160009054906101000a900473ffffffffffffffffffffffffffffffffffffffff1673ffffffffffffffffffffffffffffffffffffffff16633e4cbf42836040518263ffffffff1660e01b8152600401610ec39190612460565b600060405180830381865afa158015610ee0573d6000803e3d6000fd5b505050506040513d6000823e3d601f19601f82011682018060405250810190610f0991906125ad565b9050919050565b610f18611341565b6000808381548110610f2d57610f2c611ff4565b5b90600052602060002090600a0201604051806101400160405290816000820160009054906101000a900473ffffffffffffffffffffffffffffffffffffffff1673ffffffffffffffffffffffffffffffffffffffff1673ffffffffffffffffffffffffffffffffffffffff168152602001600182018054610fad90611f57565b80601f0160208091040260200160405190810160405280929190818152602001828054610fd990611f57565b80156110265780601f10610ffb57610100808354040283529160200191611026565b820191906000526020600020905b81548152906001019060200180831161100957829003601f168201915b5050505050815260200160028201805461103f90611f57565b80601f016020809104026020016040519081016040528092919081815260200182805461106b90611f57565b80156110b85780601f1061108d576101008083540402835291602001916110b8565b820191906000526020600020905b81548152906001019060200180831161109b57829003601f168201915b505050505081526020016003820180546110d190611f57565b80601f01602080910402602001604051908101604052809291908181526020018280546110fd90611f57565b801561114a5780601f1061111f5761010080835404028352916020019161114a565b820191906000526020600020905b81548152906001019060200180831161112d57829003601f168201915b505050505081526020016004820154815260200160058201805461116d90611f57565b80601f016020809104026020016040519081016040528092919081815260200182805461119990611f57565b80156111e65780601f106111bb576101008083540402835291602001916111e6565b820191906000526020600020905b8154815290600101906020018083116111c957829003601f168201915b5050505050815260200160068201548152602001600782015481526020016008820180548060200260200160405190810160405280929190818152602001828054801561128857602002820191906000526020600020905b8160009054906101000a900473ffffffffffffffffffffffffffffffffffffffff1673ffffffffffffffffffffffffffffffffffffffff168152602001906001019080831161123e575b505050505081526020016009820160009054906101000a900460ff161515151581525050905080915050919050565b828054828255906000526020600020908101928215611330579160200282015b8281111561132f5782518260006101000a81548173ffffffffffffffffffffffffffffffffffffffff021916908373ffffffffffffffffffffffffffffffffffffffff160217905550916020019190600101906112d7565b5b50905061133d91906113ac565b5090565b604051806101400160405280600073ffffffffffffffffffffffffffffffffffffffff16815260200160608152602001606081526020016060815260200160008152602001606081526020016000815260200160008152602001606081526020016000151581525090565b5b808211156113c55760008160009055506001016113ad565b5090565b6000819050919050565b6113dc816113c9565b82525050565b60006020820190506113f760008301846113d3565b92915050565b6000604051905090565b600080fd5b600080fd5b61141a816113c9565b811461142557600080fd5b50565b60008135905061143781611411565b92915050565b60006020828403121561145357611452611407565b5b600061146184828501611428565b91505092915050565b600073ffffffffffffffffffffffffffffffffffffffff82169050919050565b60006114958261146a565b9050919050565b6114a58161148a565b82525050565b600081519050919050565b600082825260208201905092915050565b60005b838110156114e55780820151818401526020810190506114ca565b60008484015250505050565b6000601f19601f8301169050919050565b600061150d826114ab565b61151781856114b6565b93506115278185602086016114c7565b611530816114f1565b840191505092915050565b60008115159050919050565b6115508161153b565b82525050565b60006101208201905061156c600083018c61149c565b818103602083015261157e818b611502565b90508181036040830152611592818a611502565b905081810360608301526115a68189611502565b90506115b560808301886113d3565b81810360a08301526115c78187611502565b90506115d660c08301866113d3565b6115e360e08301856113d3565b6115f1610100830184611547565b9a9950505050505050505050565b6000819050919050565b600061162461161f61161a8461146a565b6115ff565b61146a565b9050919050565b600061163682611609565b9050919050565b60006116488261162b565b9050919050565b6116588161163d565b82525050565b6000602082019050611673600083018461164f565b92915050565b600080fd5b600080fd5b7f4e487b7100000000000000000000000000000000000000000000000000000000600052604160045260246000fd5b6116bb826114f1565b810181811067ffffffffffffffff821117156116da576116d9611683565b5b80604052505050565b60006116ed6113fd565b90506116f982826116b2565b919050565b600067ffffffffffffffff82111561171957611718611683565b5b611722826114f1565b9050602081019050919050565b82818337600083830152505050565b600061175161174c846116fe565b6116e3565b90508281526020810184848401111561176d5761176c61167e565b5b61177884828561172f565b509392505050565b600082601f83011261179557611794611679565b5b81356117a584826020860161173e565b91505092915050565b60008060008060008060c087890312156117cb576117ca611407565b5b60006117d989828a01611428565b965050602087013567ffffffffffffffff8111156117fa576117f961140c565b5b61180689828a01611780565b955050604087013567ffffffffffffffff8111156118275761182661140c565b5b61183389828a01611780565b945050606087013567ffffffffffffffff8111156118545761185361140c565b5b61186089828a01611780565b935050608061187189828a01611428565b92505060a087013567ffffffffffffffff8111156118925761189161140c565b5b61189e89828a01611780565b9150509295509295509295565b600080600080600060a086880312156118c7576118c6611407565b5b600086013567ffffffffffffffff8111156118e5576118e461140c565b5b6118f188828901611780565b955050602086013567ffffffffffffffff8111156119125761191161140c565b5b61191e88828901611780565b945050604086013567ffffffffffffffff81111561193f5761193e61140c565b5b61194b88828901611780565b935050606061195c88828901611428565b925050608086013567ffffffffffffffff81111561197d5761197c61140c565b5b61198988828901611780565b9150509295509295909350565b600081519050919050565b600082825260208201905092915050565b6000819050602082019050919050565b6119cb8161148a565b82525050565b600082825260208201905092915050565b60006119ed826114ab565b6119f781856119d1565b9350611a078185602086016114c7565b611a10816114f1565b840191505092915050565b611a24816113c9565b82525050565b600081519050919050565b600082825260208201905092915050565b6000819050602082019050919050565b6000611a618261146a565b9050919050565b611a7181611a56565b82525050565b6000611a838383611a68565b60208301905092915050565b6000602082019050919050565b6000611aa782611a2a565b611ab18185611a35565b9350611abc83611a46565b8060005b83811015611aed578151611ad48882611a77565b9750611adf83611a8f565b925050600181019050611ac0565b5085935050505092915050565b611b038161153b565b82525050565b600061014083016000830151611b2260008601826119c2565b5060208301518482036020860152611b3a82826119e2565b91505060408301518482036040860152611b5482826119e2565b91505060608301518482036060860152611b6e82826119e2565b9150506080830151611b836080860182611a1b565b5060a083015184820360a0860152611b9b82826119e2565b91505060c0830151611bb060c0860182611a1b565b5060e0830151611bc360e0860182611a1b565b50610100830151848203610100860152611bdd8282611a9c565b915050610120830151611bf4610120860182611afa565b508091505092915050565b6000611c0b8383611b09565b905092915050565b6000602082019050919050565b6000611c2b82611996565b611c3581856119a1565b935083602082028501611c47856119b2565b8060005b85811015611c835784840389528151611c648582611bff565b9450611c6f83611c13565b925060208a01995050600181019050611c4b565b50829750879550505050505092915050565b60006020820190508181036000830152611caf8184611c20565b905092915050565b611cc081611a56565b8114611ccb57600080fd5b50565b600081359050611cdd81611cb7565b92915050565b600060208284031215611cf957611cf8611407565b5b6000611d0784828501611cce565b91505092915050565b600081519050919050565b600082825260208201905092915050565b6000819050602082019050919050565b604082016000820151611d526000850182611a1b565b506020820151611d656020850182611a1b565b50505050565b6000611d778383611d3c565b60408301905092915050565b6000602082019050919050565b6000611d9b82611d10565b611da58185611d1b565b9350611db083611d2c565b8060005b83811015611de1578151611dc88882611d6b565b9750611dd383611d83565b925050600181019050611db4565b5085935050505092915050565b60006020820190508181036000830152611e088184611d90565b905092915050565b600061014083016000830151611e2960008601826119c2565b5060208301518482036020860152611e4182826119e2565b91505060408301518482036040860152611e5b82826119e2565b91505060608301518482036060860152611e7582826119e2565b9150506080830151611e8a6080860182611a1b565b5060a083015184820360a0860152611ea282826119e2565b91505060c0830151611eb760c0860182611a1b565b5060e0830151611eca60e0860182611a1b565b50610100830151848203610100860152611ee48282611a9c565b915050610120830151611efb610120860182611afa565b508091505092915050565b60006020820190508181036000830152611f208184611e10565b905092915050565b7f4e487b7100000000000000000000000000000000000000000000000000000000600052602260045260246000fd5b60006002820490506001821680611f6f57607f821691505b602082108103611f8257611f81611f28565b5b50919050565b7f496e76616c69642063616d706169676e20696e64657800000000000000000000600082015250565b6000611fbe6016836114b6565b9150611fc982611f88565b602082019050919050565b60006020820190508181036000830152611fed81611fb1565b9050919050565b7f4e487b7100000000000000000000000000000000000000000000000000000000600052603260045260246000fd5b60008190508160005260206000209050919050565b60006020601f8301049050919050565b600082821b905092915050565b6000600883026120857fffffffffffffffffffffffffffffffffffffffffffffffffffffffffffffffff82612048565b61208f8683612048565b95508019841693508086168417925050509392505050565b60006120c26120bd6120b8846113c9565b6115ff565b6113c9565b9050919050565b6000819050919050565b6120dc836120a7565b6120f06120e8826120c9565b848454612055565b825550505050565b600090565b6121056120f8565b6121108184846120d3565b505050565b5b81811015612134576121296000826120fd565b600181019050612116565b5050565b601f8211156121795761214a81612023565b61215384612038565b81016020851015612162578190505b61217661216e85612038565b830182612115565b50505b505050565b600082821c905092915050565b600061219c6000198460080261217e565b1980831691505092915050565b60006121b5838361218b565b9150826002028217905092915050565b6121ce826114ab565b67ffffffffffffffff8111156121e7576121e6611683565b5b6121f18254611f57565b6121fc828285612138565b600060209050601f83116001811461222f576000841561221d578287015190505b61222785826121a9565b86555061228f565b601f19841661223d86612023565b60005b8281101561226557848901518255600182019150602085019450602081019050612240565b86831015612282578489015161227e601f89168261218b565b8355505b6001600288020188555050505b505050505050565b7f43616d706169676e20636f6d706c657465640000000000000000000000000000600082015250565b60006122cd6012836114b6565b91506122d882612297565b602082019050919050565b600060208201905081810360008301526122fc816122c0565b9050919050565b7f4e487b7100000000000000000000000000000000000000000000000000000000600052601160045260246000fd5b600061233d826113c9565b9150612348836113c9565b92508282019050808211156123605761235f612303565b5b92915050565b61236f81611a56565b82525050565b600060608201905061238a60008301866113d3565b61239760208301856113d3565b6123a46040830184612366565b949350505050565b7f54617267657420616d6f756e74206d757374206e6f74206265207a65726f0000600082015250565b60006123e2601e836114b6565b91506123ed826123ac565b602082019050919050565b60006020820190508181036000830152612411816123d5565b9050919050565b6000612423826113c9565b91507fffffffffffffffffffffffffffffffffffffffffffffffffffffffffffffffff820361245557612454612303565b5b600182019050919050565b60006020820190506124756000830184612366565b92915050565b600067ffffffffffffffff82111561249657612495611683565b5b602082029050602081019050919050565b600080fd5b600080fd5b6000815190506124c081611411565b92915050565b6000604082840312156124dc576124db6124ac565b5b6124e660406116e3565b905060006124f6848285016124b1565b600083015250602061250a848285016124b1565b60208301525092915050565b60006125296125248461247b565b6116e3565b9050808382526020820190506040840283018581111561254c5761254b6124a7565b5b835b81811015612575578061256188826124c6565b84526020840193505060408101905061254e565b5050509392505050565b600082601f83011261259457612593611679565b5b81516125a4848260208601612516565b91505092915050565b6000602082840312156125c3576125c2611407565b5b600082015167ffffffffffffffff8111156125e1576125e061140c565b5b6125ed8482850161257f565b9150509291505056fea264697066735822122012302db4fc93759c0e8e2fcb786ad25b43422fb7cff3ebe7b6966972ad345afd64736f6c63430008130033608060405234801561001057600080fd5b5061052f806100206000396000f3fe6080604052600436106100345760003560e01c80632d12af6a146100395780633e4cbf42146100555780637969f3b814610092575b600080fd5b610053600480360381019061004e91906102f2565b6100d0565b005b34801561006157600080fd5b5061007c60048036038101906100779190610345565b610167565b604051610089919061045f565b60405180910390f35b34801561009e57600080fd5b506100b960048036038101906100b49190610481565b610218565b6040516100c79291906104d0565b60405180910390f35b6000808273ffffffffffffffffffffffffffffffffffffffff1673ffffffffffffffffffffffffffffffffffffffff168152602001908152602001600020604051806040016040528085815260200184815250908060018154018082558091505060019003906000526020600020906002020160009091909190915060008201518160000155602082015181600101555050505050565b60606000808373ffffffffffffffffffffffffffffffffffffffff1673ffffffffffffffffffffffffffffffffffffffff168152602001908152602001600020805480602002602001604051908101604052809291908181526020016000905b8282101561020d578382906000526020600020906002020160405180604001604052908160008201548152602001600182015481525050815260200190600101906101c7565b505050509050919050565b6000602052816000526040600020818154811061023457600080fd5b9060005260206000209060020201600091509150508060000154908060010154905082565b600080fd5b6000819050919050565b6102718161025e565b811461027c57600080fd5b50565b60008135905061028e81610268565b92915050565b600073ffffffffffffffffffffffffffffffffffffffff82169050919050565b60006102bf82610294565b9050919050565b6102cf816102b4565b81146102da57600080fd5b50565b6000813590506102ec816102c6565b92915050565b60008060006060848603121561030b5761030a610259565b5b60006103198682870161027f565b935050602061032a8682870161027f565b925050604061033b868287016102dd565b9150509250925092565b60006020828403121561035b5761035a610259565b5b6000610369848285016102dd565b91505092915050565b600081519050919050565b600082825260208201905092915050565b6000819050602082019050919050565b6103a78161025e565b82525050565b6040820160008201516103c3600085018261039e565b5060208201516103d6602085018261039e565b50505050565b60006103e883836103ad565b60408301905092915050565b6000602082019050919050565b600061040c82610372565b610416818561037d565b93506104218361038e565b8060005b8381101561045257815161043988826103dc565b9750610444836103f4565b925050600181019050610425565b5085935050505092915050565b600060208201905081810360008301526104798184610401565b905092915050565b6000806040838503121561049857610497610259565b5b60006104a6858286016102dd565b92505060206104b78582860161027f565b9150509250929050565b6104ca8161025e565b82525050565b60006040820190506104e560008301856104c1565b6104f260208301846104c1565b939250505056fea26469706673582212206c7cc483a308ed0e4c407669c1dba70e7fc2feb95b0433ea300b7e727fbe4fef64736f6c63430008130033",
  "immutableReferences": {},
  "source": "// SPDX-License-Identifier: UNLICENSED\npragma solidity ^0.8.9;\n\ncontract DonorHistory{\n    struct History{\n        uint amount;\n        uint campaignId;\n    }\n    mapping(address=>History[]) public donorHistory;\n    function addToHistory(uint _amount,uint _campaignId, address _donor) public payable {\n        donorHistory[_donor].push(History({\n            amount:_amount,\n            campaignId:_campaignId\n        }));\n    }\n    function getDonorHistory(address _donor) public view returns(History[] memory){\n        return donorHistory[_donor];\n    }\n}\n\ncontract CrowdFunding{\n    struct Campaign{\n        address payable receipientAddress;\n        string title;\n        string description;\n        string imageUrl;\n        uint target;\n        string deadline;\n        uint received;\n        uint id;\n        address[] donators; \n        bool completed;\n    }\n    Campaign[] public campaigns;\n    DonorHistory public donorHistory;\n    constructor(){\n        donorHistory = new DonorHistory();\n    }\n    uint public numberOfCampaigns = 0;\n    function addCampaigns(string memory _title, string memory _description, string memory _imageUrl, uint _target, string memory _deadline ) public {\n        require(_target > 0,\"Target amount must not be zero\");\n        campaigns.push(Campaign({\n            receipientAddress:payable(msg.sender),\n            title:_title,\n            description:_description,\n            imageUrl:_imageUrl,\n            target:_target,\n            deadline:_deadline,\n            received:0,\n            id:numberOfCampaigns,\n            completed:false,\n            donators:new address[](0)\n        }));\n        numberOfCampaigns++;\n    }\n    function getDonorDonationHistory(address _address) public view returns (DonorHistory.History[] memory) {\n        return donorHistory.getDonorHistory(_address);\n    }\n    function getCampaigns() public view returns(Campaign[] memory){\n        return campaigns;\n    } \n    function getCampaignDetails(uint index) public view returns(Campaign memory){\n        Campaign memory campaign = campaigns[index];\n        return campaign;\n    }\n\n    function donateToCampaign(uint index) public payable {\n        require(index < campaigns.length, \"Invalid campaign index\");\n        Campaign storage campaign = campaigns[index];\n        require(!campaign.completed,\"Campaign completed\");\n        campaign.receipientAddress.transfer(msg.value);\n        campaign.received = campaign.received + msg.value;\n        campaign.donators.push(msg.sender);\n        donorHistory.addToHistory(msg.value,index,msg.sender);\n        if(campaign.received>=campaign.target){\n            campaign.completed = true;\n        }\n    } \n    function updateCampaign(uint index,string memory _title, string memory _description, string memory _imageUrl, uint _target, string memory _deadline) public {\n        require(index<campaigns.length,\"Invalid campaign index\");\n        Campaign storage campaign = campaigns[index];\n        campaign.title = _title;\n        campaign.description = _description;\n        campaign.imageUrl = _imageUrl;\n        campaign.deadline = _deadline;\n        campaign.target = _target;\n        if(campaign.received>=campaign.target){\n            campaign.completed = true;\n        }\n    }\n}",
  "sourcePath": "/Users/uday/Desktop/Blockchain/project/contracts/CrowdFunding.sol",
  "compiler": {
    "name": "solc",
    "version": "0.8.19+commit.7dd6d404.Emscripten.clang"
  },
  "schemaVersion": "3.4.12",
  "updatedAt": "2023-04-14T07:37:14.037Z",
  "networkType": "ethereum",
  "devdoc": {
    "kind": "dev",
    "methods": {},
    "version": 1
  },
  "userdoc": {
    "kind": "user",
    "methods": {},
    "version": 1
  }
}