{
  "contractName": "DonorHistory",
  "abi": [
    {
      "inputs": [
        {
          "internalType": "address",
          "name": "",
          "type": "address"
        },
        {
          "internalType": "uint256",
          "name": "",
          "type": "uint256"
        }
      ],
      "name": "donorHistory",
      "outputs": [
        {
          "internalType": "uint256",
          "name": "amount",
          "type": "uint256"
        },
        {
          "internalType": "uint256",
          "name": "campaignId",
          "type": "uint256"
        }
      ],
      "stateMutability": "view",
      "type": "function"
    },
    {
      "inputs": [
        {
          "internalType": "uint256",
          "name": "_amount",
          "type": "uint256"
        },
        {
          "internalType": "uint256",
          "name": "_campaignId",
          "type": "uint256"
        },
        {
          "internalType": "address",
          "name": "_donor",
          "type": "address"
        }
      ],
      "name": "addToHistory",
      "outputs": [],
      "stateMutability": "payable",
      "type": "function"
    },
    {
      "inputs": [
        {
          "internalType": "address",
          "name": "_donor",
          "type": "address"
        }
      ],
      "name": "getDonorHistory",
      "outputs": [
        {
          "components": [
            {
              "internalType": "uint256",
              "name": "amount",
              "type": "uint256"
            },
            {
              "internalType": "uint256",
              "name": "campaignId",
              "type": "uint256"
            }
          ],
          "internalType": "struct DonorHistory.History[]",
          "name": "",
          "type": "tuple[]"
        }
      ],
      "stateMutability": "view",
      "type": "function"
    }
  ],
  "bytecode": "0x608060405234801561001057600080fd5b5061052f806100206000396000f3fe6080604052600436106100345760003560e01c80632d12af6a146100395780633e4cbf42146100555780637969f3b814610092575b600080fd5b610053600480360381019061004e91906102f2565b6100d0565b005b34801561006157600080fd5b5061007c60048036038101906100779190610345565b610167565b604051610089919061045f565b60405180910390f35b34801561009e57600080fd5b506100b960048036038101906100b49190610481565b610218565b6040516100c79291906104d0565b60405180910390f35b6000808273ffffffffffffffffffffffffffffffffffffffff1673ffffffffffffffffffffffffffffffffffffffff168152602001908152602001600020604051806040016040528085815260200184815250908060018154018082558091505060019003906000526020600020906002020160009091909190915060008201518160000155602082015181600101555050505050565b60606000808373ffffffffffffffffffffffffffffffffffffffff1673ffffffffffffffffffffffffffffffffffffffff168152602001908152602001600020805480602002602001604051908101604052809291908181526020016000905b8282101561020d578382906000526020600020906002020160405180604001604052908160008201548152602001600182015481525050815260200190600101906101c7565b505050509050919050565b6000602052816000526040600020818154811061023457600080fd5b9060005260206000209060020201600091509150508060000154908060010154905082565b600080fd5b6000819050919050565b6102718161025e565b811461027c57600080fd5b50565b60008135905061028e81610268565b92915050565b600073ffffffffffffffffffffffffffffffffffffffff82169050919050565b60006102bf82610294565b9050919050565b6102cf816102b4565b81146102da57600080fd5b50565b6000813590506102ec816102c6565b92915050565b60008060006060848603121561030b5761030a610259565b5b60006103198682870161027f565b935050602061032a8682870161027f565b925050604061033b868287016102dd565b9150509250925092565b60006020828403121561035b5761035a610259565b5b6000610369848285016102dd565b91505092915050565b600081519050919050565b600082825260208201905092915050565b6000819050602082019050919050565b6103a78161025e565b82525050565b6040820160008201516103c3600085018261039e565b5060208201516103d6602085018261039e565b50505050565b60006103e883836103ad565b60408301905092915050565b6000602082019050919050565b600061040c82610372565b610416818561037d565b93506104218361038e565b8060005b8381101561045257815161043988826103dc565b9750610444836103f4565b925050600181019050610425565b5085935050505092915050565b600060208201905081810360008301526104798184610401565b905092915050565b6000806040838503121561049857610497610259565b5b60006104a6858286016102dd565b92505060206104b78582860161027f565b9150509250929050565b6104ca8161025e565b82525050565b60006040820190506104e560008301856104c1565b6104f260208301846104c1565b939250505056fea2646970667358221220a689bc4c4ecc0045479d96243b3513a813ce153290ed732c2204c377cfc32c8964736f6c63430008130033",
  "immutableReferences": {},
  "source": "// SPDX-License-Identifier: UNLICENSED\npragma solidity ^0.8.9;\n\ncontract DonorHistory{\n    struct History{\n        uint amount;\n        uint campaignId;\n    }\n    mapping(address=>History[]) public donorHistory;\n    function addToHistory(uint _amount,uint _campaignId, address _donor) public payable {\n        donorHistory[_donor].push(History({\n            amount:_amount,\n            campaignId:_campaignId\n        }));\n    }\n    function getDonorHistory(address _donor) public view returns(History[] memory){\n        return donorHistory[_donor];\n    }\n}\n\ncontract CrowdFunding{\n    struct Campaign{\n        address payable receipientAddress;\n        string title;\n        string description;\n        string imageUrl;\n        uint target;\n        string deadline;\n        uint received;\n        uint id;\n        bool completed;\n    }\n    Campaign[] public campaigns;\n    DonorHistory public donorHistory;\n    uint public numberOfCampaigns = 0;\n    constructor(){\n        donorHistory = new DonorHistory();\n    }\n    function addCampaigns(string memory _title, string memory _description, string memory _imageUrl, uint _target, string memory _deadline ) public {\n        require(_target > 0,\"Target amount must not be zero\");\n        campaigns.push(Campaign({\n            receipientAddress:payable(msg.sender),\n            title:_title,\n            description:_description,\n            imageUrl:_imageUrl,\n            target:_target,\n            deadline:_deadline,\n            received:0,\n            id:numberOfCampaigns,\n            completed:false\n        }));\n        numberOfCampaigns++;\n    }\n    function getCampaigns() public view returns(Campaign[] memory){\n        return campaigns;\n    } \n    function getCampaignDetails(uint index) public view returns(Campaign memory){\n        Campaign memory campaign = campaigns[index];\n        return campaign;\n    }\n    function donateToCampaign(uint index) public payable {\n        require(index < campaigns.length, \"Invalid campaign index\");\n        Campaign storage campaign = campaigns[index];\n        require(!campaign.completed,\"Campaign completed\");\n        campaign.receipientAddress.transfer(msg.value);\n        campaign.received = campaign.received + msg.value; \n        donorHistory.addToHistory(msg.value,index,msg.sender);\n        if(campaign.received>=campaign.target){\n            campaign.completed = true;\n        }\n    }\n      function getDonorDonationHistory(address _address) public view returns (DonorHistory.History[] memory) {\n        return donorHistory.getDonorHistory(_address);\n    }\n\n     function updateCampaign(uint index,string memory _title, string memory _description, string memory _imageUrl, uint _target, string memory _deadline) public {\n        require(index<campaigns.length,\"Invalid campaign index\");\n        Campaign storage campaign = campaigns[index];\n        campaign.title = _title;\n        campaign.description = _description;\n        campaign.imageUrl = _imageUrl;\n        campaign.deadline = _deadline;\n        campaign.target = _target;\n        if(campaign.received>=campaign.target){\n            campaign.completed = true;\n        }\n    } \n}",
  "sourcePath": "/Users/uday/Desktop/Blockchain/project/contracts/CrowdFunding.sol",
  "compiler": {
    "name": "solc",
    "version": "0.8.19+commit.7dd6d404.Emscripten.clang"
  },
  "schemaVersion": "3.4.12",
  "updatedAt": "2023-04-10T07:41:08.651Z",
  "devdoc": {
    "kind": "dev",
    "methods": {},
    "version": 1
  },
  "userdoc": {
    "kind": "user",
    "methods": {},
    "version": 1
  }
}